{
  "transactions": [
    {
      "hash": "0x657848b1ab16606d7cf099ef7332aeb8ddeec9eca7284cd9f6362efb1e22847d",
      "transactionType": "CALL",
      "contractName": "InitializableImmutableAdminUpgradeabilityProxy",
      "contractAddress": "0x6Ae43d3271ff6888e7Fc43Fd7321a503ff738951",
      "function": "borrow(address,uint256,uint256,uint16,address)",
      "arguments": [
        "0xf8Fb3713D459D7C1018BD0A49D19b4C44290EBE5",
        "18943796551",
        "2",
        "0",
        "0x09c0126087ac47816516F049fE73Ee3e8122A42c"
      ],
      "transaction": {
        "type": "0x02",
        "from": "0x09c0126087ac47816516f049fe73ee3e8122a42c",
        "to": "0x6ae43d3271ff6888e7fc43fd7321a503ff738951",
        "gas": "0x5e2c2",
        "value": "0x0",
        "data": "0xa415bcad000000000000000000000000f8fb3713d459d7c1018bd0a49d19b4c44290ebe500000000000000000000000000000000000000000000000000000004692365470000000000000000000000000000000000000000000000000000000000000002000000000000000000000000000000000000000000000000000000000000000000000000000000000000000009c0126087ac47816516f049fe73ee3e8122a42c",
        "nonce": "0xfc",
        "accessList": []
      },
      "additionalContracts": [],
      "isFixedGasLimit": false
    }
  ],
  "receipts": [],
  "libraries": [],
  "pending": [
    "0x657848b1ab16606d7cf099ef7332aeb8ddeec9eca7284cd9f6362efb1e22847d"
  ],
  "returns": {},
  "timestamp": 1701698164,
  "chain": 11155111,
  "multi": false,
  "commit": "7fb8683"
}