{
  "transactions": [
    {
      "hash": "0xfe4291446cb0c90ac100b1a6a1f0252161b995e1a6136a43af0f12fe8756c142",
      "transactionType": "CALL",
      "contractName": "TestnetERC20",
      "contractAddress": "0xf8Fb3713D459D7C1018BD0A49D19b4C44290EBE5",
      "function": "approve(address,uint256)",
      "arguments": [
        "0x6Ae43d3271ff6888e7Fc43Fd7321a503ff738951",
        "122"
      ],
      "transaction": {
        "type": "0x02",
        "from": "0x09c0126087ac47816516f049fe73ee3e8122a42c",
        "to": "0xf8fb3713d459d7c1018bd0a49d19b4c44290ebe5",
        "gas": "0xf938",
        "value": "0x0",
        "data": "0x095ea7b30000000000000000000000006ae43d3271ff6888e7fc43fd7321a503ff738951000000000000000000000000000000000000000000000000000000000000007a",
        "nonce": "0xff",
        "accessList": []
      },
      "additionalContracts": [],
      "isFixedGasLimit": false
    },
    {
      "hash": "0xd129a8c23eaf4d3fa88434e8f6fe58400bc1a44df2853f4c75ef0af33eda53cb",
      "transactionType": "CALL",
      "contractName": "InitializableImmutableAdminUpgradeabilityProxy",
      "contractAddress": "0x6Ae43d3271ff6888e7Fc43Fd7321a503ff738951",
      "function": "repay(address,uint256,uint256,address)",
      "arguments": [
        "0xf8Fb3713D459D7C1018BD0A49D19b4C44290EBE5",
        "1",
        "2",
        "0x09c0126087ac47816516F049fE73Ee3e8122A42c"
      ],
      "transaction": {
        "type": "0x02",
        "from": "0x09c0126087ac47816516f049fe73ee3e8122a42c",
        "to": "0x6ae43d3271ff6888e7fc43fd7321a503ff738951",
        "gas": "0x3d291",
        "value": "0x0",
        "data": "0x573ade81000000000000000000000000f8fb3713d459d7c1018bd0a49d19b4c44290ebe50000000000000000000000000000000000000000000000000000000000000001000000000000000000000000000000000000000000000000000000000000000200000000000000000000000009c0126087ac47816516f049fe73ee3e8122a42c",
        "nonce": "0x100",
        "accessList": []
      },
      "additionalContracts": [],
      "isFixedGasLimit": false
    }
  ],
  "receipts": [
    {
      "transactionHash": "0xfe4291446cb0c90ac100b1a6a1f0252161b995e1a6136a43af0f12fe8756c142",
      "transactionIndex": "0x1a",
      "blockHash": "0x6bf3e7bca36575f939cac2a50df5b5539301e1c5c4d15c3ed04d8f3e4924d46e",
      "blockNumber": "0x499014",
      "from": "0x09c0126087ac47816516F049fE73Ee3e8122A42c",
      "to": "0xf8Fb3713D459D7C1018BD0A49D19b4C44290EBE5",
      "cumulativeGasUsed": "0x4e7d27",
      "gasUsed": "0xb46f",
      "contractAddress": null,
      "logs": [
        {
          "address": "0xf8Fb3713D459D7C1018BD0A49D19b4C44290EBE5",
          "topics": [
            "0x8c5be1e5ebec7d5bd14f71427d1e84f3dd0314c0f7b2291e5b200ac8c7c3b925",
            "0x00000000000000000000000009c0126087ac47816516f049fe73ee3e8122a42c",
            "0x0000000000000000000000006ae43d3271ff6888e7fc43fd7321a503ff738951"
          ],
          "data": "0x000000000000000000000000000000000000000000000000000000000000007a",
          "blockHash": "0x6bf3e7bca36575f939cac2a50df5b5539301e1c5c4d15c3ed04d8f3e4924d46e",
          "blockNumber": "0x499014",
          "transactionHash": "0xfe4291446cb0c90ac100b1a6a1f0252161b995e1a6136a43af0f12fe8756c142",
          "transactionIndex": "0x1a",
          "logIndex": "0x28",
          "removed": false
        }
      ],
      "status": "0x1",
      "logsBloom": "0x00000000000000000000000000000000000000000000000000000000000000800000000000000000000000000000000000040000000000020000000000200000000000000000000000000000000000000000000000000000000000000000200000000000000000000000000000000400000000000000000000000000000000002000000000000000000000200000000000000000000000000000000000000000020000000000000000000000000000000000000000004000000000000000000000000000000000000000000000000000000000000000000000000000000000000010000000000000000000000000000000000000000020000000000000000000",
      "type": "0x2",
      "effectiveGasPrice": "0xb7872b1a"
    },
    {
      "transactionHash": "0xd129a8c23eaf4d3fa88434e8f6fe58400bc1a44df2853f4c75ef0af33eda53cb",
      "transactionIndex": "0x1f",
      "blockHash": "0x6bf3e7bca36575f939cac2a50df5b5539301e1c5c4d15c3ed04d8f3e4924d46e",
      "blockNumber": "0x499014",
      "from": "0x09c0126087ac47816516F049fE73Ee3e8122A42c",
      "to": "0x6Ae43d3271ff6888e7Fc43Fd7321a503ff738951",
      "cumulativeGasUsed": "0x5f6fe1",
      "gasUsed": "0x2c478",
      "contractAddress": null,
      "logs": [
        {
          "address": "0x34a4d932E722b9dFb492B9D8131127690CE2430B",
          "topics": [
            "0xddf252ad1be2c89b69c2b068fc378daa952ba7f163c4a11628f55a4df523b3ef",
            "0x0000000000000000000000000000000000000000000000000000000000000000",
            "0x00000000000000000000000009c0126087ac47816516f049fe73ee3e8122a42c"
          ],
          "data": "0x00000000000000000000000000000000000000000000000000000000000649da",
          "blockHash": "0x6bf3e7bca36575f939cac2a50df5b5539301e1c5c4d15c3ed04d8f3e4924d46e",
          "blockNumber": "0x499014",
          "transactionHash": "0xd129a8c23eaf4d3fa88434e8f6fe58400bc1a44df2853f4c75ef0af33eda53cb",
          "transactionIndex": "0x1f",
          "logIndex": "0x2c",
          "removed": false
        },
        {
          "address": "0x34a4d932E722b9dFb492B9D8131127690CE2430B",
          "topics": [
            "0x458f5fa412d0f69b08dd84872b0215675cc67bc1d5b6fd93300a1c3878b86196",
            "0x00000000000000000000000009c0126087ac47816516f049fe73ee3e8122a42c",
            "0x00000000000000000000000009c0126087ac47816516f049fe73ee3e8122a42c"
          ],
          "data": "0x00000000000000000000000000000000000000000000000000000000000649da00000000000000000000000000000000000000000000000000000000000649db0000000000000000000000000000000000000000048ccdd8220b0c48d0d79301",
          "blockHash": "0x6bf3e7bca36575f939cac2a50df5b5539301e1c5c4d15c3ed04d8f3e4924d46e",
          "blockNumber": "0x499014",
          "transactionHash": "0xd129a8c23eaf4d3fa88434e8f6fe58400bc1a44df2853f4c75ef0af33eda53cb",
          "transactionIndex": "0x1f",
          "logIndex": "0x2d",
          "removed": false
        },
        {
          "address": "0x6Ae43d3271ff6888e7Fc43Fd7321a503ff738951",
          "topics": [
            "0x804c9b842b2748a22bb64b345453a3de7ca54a6ca45ce00d415894979e22897a",
            "0x000000000000000000000000f8fb3713d459d7c1018bd0a49d19b4c44290ebe5"
          ],
          "data": "0x00000000000000000000000000000000000000000510087938d62d1bbcdf3312000000000000000000000000000000000000000007ae1592ea3132b23a29c38a00000000000000000000000000000000000000000763a355237d2727a029c38a000000000000000000000000000000000000000004273425785ad4caf5ae50b70000000000000000000000000000000000000000048ccdd8220b0c48d0d79301",
          "blockHash": "0x6bf3e7bca36575f939cac2a50df5b5539301e1c5c4d15c3ed04d8f3e4924d46e",
          "blockNumber": "0x499014",
          "transactionHash": "0xd129a8c23eaf4d3fa88434e8f6fe58400bc1a44df2853f4c75ef0af33eda53cb",
          "transactionIndex": "0x1f",
          "logIndex": "0x2e",
          "removed": false
        },
        {
          "address": "0xf8Fb3713D459D7C1018BD0A49D19b4C44290EBE5",
          "topics": [
            "0xddf252ad1be2c89b69c2b068fc378daa952ba7f163c4a11628f55a4df523b3ef",
            "0x00000000000000000000000009c0126087ac47816516f049fe73ee3e8122a42c",
            "0x0000000000000000000000003ffaf50d4f4e96eb78f2407c090b72e86ecaed24"
          ],
          "data": "0x0000000000000000000000000000000000000000000000000000000000000001",
          "blockHash": "0x6bf3e7bca36575f939cac2a50df5b5539301e1c5c4d15c3ed04d8f3e4924d46e",
          "blockNumber": "0x499014",
          "transactionHash": "0xd129a8c23eaf4d3fa88434e8f6fe58400bc1a44df2853f4c75ef0af33eda53cb",
          "transactionIndex": "0x1f",
          "logIndex": "0x2f",
          "removed": false
        },
        {
          "address": "0xf8Fb3713D459D7C1018BD0A49D19b4C44290EBE5",
          "topics": [
            "0x8c5be1e5ebec7d5bd14f71427d1e84f3dd0314c0f7b2291e5b200ac8c7c3b925",
            "0x00000000000000000000000009c0126087ac47816516f049fe73ee3e8122a42c",
            "0x0000000000000000000000006ae43d3271ff6888e7fc43fd7321a503ff738951"
          ],
          "data": "0x0000000000000000000000000000000000000000000000000000000000000079",
          "blockHash": "0x6bf3e7bca36575f939cac2a50df5b5539301e1c5c4d15c3ed04d8f3e4924d46e",
          "blockNumber": "0x499014",
          "transactionHash": "0xd129a8c23eaf4d3fa88434e8f6fe58400bc1a44df2853f4c75ef0af33eda53cb",
          "transactionIndex": "0x1f",
          "logIndex": "0x30",
          "removed": false
        },
        {
          "address": "0x6Ae43d3271ff6888e7Fc43Fd7321a503ff738951",
          "topics": [
            "0xa534c8dbe71f871f9f3530e97a74601fea17b426cae02e1c5aee42c96c784051",
            "0x000000000000000000000000f8fb3713d459d7c1018bd0a49d19b4c44290ebe5",
            "0x00000000000000000000000009c0126087ac47816516f049fe73ee3e8122a42c",
            "0x00000000000000000000000009c0126087ac47816516f049fe73ee3e8122a42c"
          ],
          "data": "0x00000000000000000000000000000000000000000000000000000000000000010000000000000000000000000000000000000000000000000000000000000000",
          "blockHash": "0x6bf3e7bca36575f939cac2a50df5b5539301e1c5c4d15c3ed04d8f3e4924d46e",
          "blockNumber": "0x499014",
          "transactionHash": "0xd129a8c23eaf4d3fa88434e8f6fe58400bc1a44df2853f4c75ef0af33eda53cb",
          "transactionIndex": "0x1f",
          "logIndex": "0x31",
          "removed": false
        }
      ],
      "status": "0x1",
      "logsBloom": "0x00020000000000000000000000000000000000000000000000000000000000800000000040000000000000000004000000040000402000020000000000200000000000000001000000000008000000000000000000000000000000040000200000000000020020000000000000000c00000000000000000008000010400000002000000001000000000000200000000000200000000000000000000000000000020000000000020000000000000000000000000000004000000000000000010002000002000000000000002000000000004000000000000000000000000020000010100000000000000000000000000000000000000820000000000000040000",
      "type": "0x2",
      "effectiveGasPrice": "0xb7872b1a"
    }
  ],
  "libraries": [],
  "pending": [],
  "returns": {},
  "timestamp": 1701698643,
  "chain": 11155111,
  "multi": false,
  "commit": "7fb8683"
}