{
  "transactions": [
    {
      "hash": "0xee4ebd4734af16f15537b1aaea5831e723b2d8366490dc8b271b825733c19c44",
      "transactionType": "CALL",
      "contractName": "WETH",
      "contractAddress": "0x7b79995e5f793A07Bc00c21412e50Ecae098E7f9",
      "function": "approve(address,uint256)",
      "arguments": [
        "0x6Ae43d3271ff6888e7Fc43Fd7321a503ff738951",
        "10000000000000000"
      ],
      "transaction": {
        "type": "0x02",
        "from": "0x09c0126087ac47816516f049fe73ee3e8122a42c",
        "to": "0x7b79995e5f793a07bc00c21412e50ecae098e7f9",
        "gas": "0x8ced",
        "value": "0x0",
        "data": "0x095ea7b30000000000000000000000006ae43d3271ff6888e7fc43fd7321a503ff738951000000000000000000000000000000000000000000000000002386f26fc10000",
        "nonce": "0xd7",
        "accessList": []
      },
      "additionalContracts": [],
      "isFixedGasLimit": false
    }
  ],
  "receipts": [
    {
      "transactionHash": "0xee4ebd4734af16f15537b1aaea5831e723b2d8366490dc8b271b825733c19c44",
      "transactionIndex": "0x5",
      "blockHash": "0xcb5bf9302b6fa26b24221cf55f361c15105a76386053ba274e917d86fe8095f5",
      "blockNumber": "0x491c96",
      "from": "0x09c0126087ac47816516F049fE73Ee3e8122A42c",
      "to": "0x7b79995e5f793A07Bc00c21412e50Ecae098E7f9",
      "cumulativeGasUsed": "0xd9857",
      "gasUsed": "0x6608",
      "contractAddress": null,
      "logs": [
        {
          "address": "0x7b79995e5f793A07Bc00c21412e50Ecae098E7f9",
          "topics": [
            "0x8c5be1e5ebec7d5bd14f71427d1e84f3dd0314c0f7b2291e5b200ac8c7c3b925",
            "0x00000000000000000000000009c0126087ac47816516f049fe73ee3e8122a42c",
            "0x0000000000000000000000006ae43d3271ff6888e7fc43fd7321a503ff738951"
          ],
          "data": "0x000000000000000000000000000000000000000000000000002386f26fc10000",
          "blockHash": "0xcb5bf9302b6fa26b24221cf55f361c15105a76386053ba274e917d86fe8095f5",
          "blockNumber": "0x491c96",
          "transactionHash": "0xee4ebd4734af16f15537b1aaea5831e723b2d8366490dc8b271b825733c19c44",
          "transactionIndex": "0x5",
          "logIndex": "0x4",
          "removed": false
        }
      ],
      "status": "0x1",
      "logsBloom": "0x00000000000000000000000000000000000000000000000000000004000000000000000000000000000000000000000000040000000000000000000000200000000000000000000000000000000000000000000000000000000000000000200000000000000000000000000000000000000000000000000000000000000000002000000000000000000000200000000000000000000000000000000000000000020000000000000000000000000000080000000000004000000000000000000000000002000000000000000000000000000000000000000000000000000000000010000000000000000000000000000000000000000020000000000000000000",
      "type": "0x2",
      "effectiveGasPrice": "0xbcfec468"
    }
  ],
  "libraries": [],
  "pending": [],
  "returns": {},
  "timestamp": 1701294258,
  "chain": 11155111,
  "multi": false,
  "commit": "fc2d524"
}