{
  "transactions": [
    {
      "hash": "0xdc44139962972482485b8920908777e3edadbec7b374c82b3d9a8350698c5038",
      "transactionType": "CALL",
      "contractName": "LinkToken",
      "contractAddress": "0x779877A7B0D9E8603169DdbD7836e478b4624789",
      "function": "approve(address,uint256)",
      "arguments": [
        "0x6Ae43d3271ff6888e7Fc43Fd7321a503ff738951",
        "10000000000000000"
      ],
      "transaction": {
        "type": "0x02",
        "from": "0x09c0126087ac47816516f049fe73ee3e8122a42c",
        "to": "0x779877a7b0d9e8603169ddbd7836e478b4624789",
        "gas": "0x8df2",
        "value": "0x0",
        "data": "0x095ea7b30000000000000000000000006ae43d3271ff6888e7fc43fd7321a503ff738951000000000000000000000000000000000000000000000000002386f26fc10000",
        "nonce": "0xec",
        "accessList": []
      },
      "additionalContracts": [],
      "isFixedGasLimit": false
    }
  ],
  "receipts": [
    {
      "transactionHash": "0xdc44139962972482485b8920908777e3edadbec7b374c82b3d9a8350698c5038",
      "transactionIndex": "0xc",
      "blockHash": "0x99b21bd12b6ee7ea85274694554b738ff8807a1c16d4bd54fda7221a6371bdf6",
      "blockNumber": "0x494692",
      "from": "0x09c0126087ac47816516F049fE73Ee3e8122A42c",
      "to": "0x779877A7B0D9E8603169DdbD7836e478b4624789",
      "cumulativeGasUsed": "0xe63eb",
      "gasUsed": "0x66c5",
      "contractAddress": null,
      "logs": [
        {
          "address": "0x779877A7B0D9E8603169DdbD7836e478b4624789",
          "topics": [
            "0x8c5be1e5ebec7d5bd14f71427d1e84f3dd0314c0f7b2291e5b200ac8c7c3b925",
            "0x00000000000000000000000009c0126087ac47816516f049fe73ee3e8122a42c",
            "0x0000000000000000000000006ae43d3271ff6888e7fc43fd7321a503ff738951"
          ],
          "data": "0x000000000000000000000000000000000000000000000000002386f26fc10000",
          "blockHash": "0x99b21bd12b6ee7ea85274694554b738ff8807a1c16d4bd54fda7221a6371bdf6",
          "blockNumber": "0x494692",
          "transactionHash": "0xdc44139962972482485b8920908777e3edadbec7b374c82b3d9a8350698c5038",
          "transactionIndex": "0xc",
          "logIndex": "0x0",
          "removed": false
        }
      ],
      "status": "0x1",
      "logsBloom": "0x00000004000000000000000000000000000000000000000000000000000000000000000000000000000000000000000000040000000000000000000000200000000000000000000000000000000000000000000000000000000000000000200000000000000000000000000000000000000000000000000000000000000000002000000000000000000000200000800000000000000000000000000000000000020000000000000000000000000000000000000000004000000000000000000000000000000000000000000000000000000000000000000100000000000000000010000000000000000000000000000000000000000020000000000000000000",
      "type": "0x2",
      "effectiveGasPrice": "0xbd1cc312"
    }
  ],
  "libraries": [],
  "pending": [],
  "returns": {},
  "timestamp": 1701441398,
  "chain": 11155111,
  "multi": false,
  "commit": "fd61391"
}