{
  "transactions": [
    {
      "hash": "0x657848b1ab16606d7cf099ef7332aeb8ddeec9eca7284cd9f6362efb1e22847d",
      "transactionType": "CALL",
      "contractName": "InitializableImmutableAdminUpgradeabilityProxy",
      "contractAddress": "0x6Ae43d3271ff6888e7Fc43Fd7321a503ff738951",
      "function": "borrow(address,uint256,uint256,uint16,address)",
      "arguments": [
        "0xf8Fb3713D459D7C1018BD0A49D19b4C44290EBE5",
        "18943796551",
        "2",
        "0",
        "0x09c0126087ac47816516F049fE73Ee3e8122A42c"
      ],
      "transaction": {
        "type": "0x02",
        "from": "0x09c0126087ac47816516f049fe73ee3e8122a42c",
        "to": "0x6ae43d3271ff6888e7fc43fd7321a503ff738951",
        "gas": "0x5e2c2",
        "value": "0x0",
        "data": "0xa415bcad000000000000000000000000f8fb3713d459d7c1018bd0a49d19b4c44290ebe500000000000000000000000000000000000000000000000000000004692365470000000000000000000000000000000000000000000000000000000000000002000000000000000000000000000000000000000000000000000000000000000000000000000000000000000009c0126087ac47816516f049fe73ee3e8122a42c",
        "nonce": "0xfc",
        "accessList": []
      },
      "additionalContracts": [],
      "isFixedGasLimit": false
    }
  ],
  "receipts": [
    {
      "transactionHash": "0x657848b1ab16606d7cf099ef7332aeb8ddeec9eca7284cd9f6362efb1e22847d",
      "transactionIndex": "0xb",
      "blockHash": "0x7819cc02389352812f540ef563fa6826f000429086e5cb947dabf606d3720c78",
      "blockNumber": "0x498ff0",
      "from": "0x09c0126087ac47816516F049fE73Ee3e8122A42c",
      "to": "0x6Ae43d3271ff6888e7Fc43Fd7321a503ff738951",
      "cumulativeGasUsed": "0xa7af2",
      "gasUsed": "0x442df",
      "contractAddress": null,
      "logs": [
        {
          "address": "0x34a4d932E722b9dFb492B9D8131127690CE2430B",
          "topics": [
            "0xddf252ad1be2c89b69c2b068fc378daa952ba7f163c4a11628f55a4df523b3ef",
            "0x0000000000000000000000000000000000000000000000000000000000000000",
            "0x00000000000000000000000009c0126087ac47816516f049fe73ee3e8122a42c"
          ],
          "data": "0x0000000000000000000000000000000000000000000000000000000469236547",
          "blockHash": "0x7819cc02389352812f540ef563fa6826f000429086e5cb947dabf606d3720c78",
          "blockNumber": "0x498ff0",
          "transactionHash": "0x657848b1ab16606d7cf099ef7332aeb8ddeec9eca7284cd9f6362efb1e22847d",
          "transactionIndex": "0xb",
          "logIndex": "0x2",
          "removed": false
        },
        {
          "address": "0x34a4d932E722b9dFb492B9D8131127690CE2430B",
          "topics": [
            "0x458f5fa412d0f69b08dd84872b0215675cc67bc1d5b6fd93300a1c3878b86196",
            "0x00000000000000000000000009c0126087ac47816516f049fe73ee3e8122a42c",
            "0x00000000000000000000000009c0126087ac47816516f049fe73ee3e8122a42c"
          ],
          "data": "0x000000000000000000000000000000000000000000000000000000046923654700000000000000000000000000000000000000000000000000000000000000000000000000000000000000000000000000000000048cc3b98a787a4a32aa9979",
          "blockHash": "0x7819cc02389352812f540ef563fa6826f000429086e5cb947dabf606d3720c78",
          "blockNumber": "0x498ff0",
          "transactionHash": "0x657848b1ab16606d7cf099ef7332aeb8ddeec9eca7284cd9f6362efb1e22847d",
          "transactionIndex": "0xb",
          "logIndex": "0x3",
          "removed": false
        },
        {
          "address": "0x6Ae43d3271ff6888e7Fc43Fd7321a503ff738951",
          "topics": [
            "0x804c9b842b2748a22bb64b345453a3de7ca54a6ca45ce00d415894979e22897a",
            "0x000000000000000000000000f8fb3713d459d7c1018bd0a49d19b4c44290ebe5"
          ],
          "data": "0x00000000000000000000000000000000000000000510038df17a6e2434d081f2000000000000000000000000000000000000000007ae10c0faf30a30bf1d9119000000000000000000000000000000000000000007639e83343efea6251d9119000000000000000000000000000000000000000004272dd161c3ecacea8b4c690000000000000000000000000000000000000000048cc3b98a787a4a32aa9979",
          "blockHash": "0x7819cc02389352812f540ef563fa6826f000429086e5cb947dabf606d3720c78",
          "blockNumber": "0x498ff0",
          "transactionHash": "0x657848b1ab16606d7cf099ef7332aeb8ddeec9eca7284cd9f6362efb1e22847d",
          "transactionIndex": "0xb",
          "logIndex": "0x4",
          "removed": false
        },
        {
          "address": "0xf8Fb3713D459D7C1018BD0A49D19b4C44290EBE5",
          "topics": [
            "0xddf252ad1be2c89b69c2b068fc378daa952ba7f163c4a11628f55a4df523b3ef",
            "0x0000000000000000000000003ffaf50d4f4e96eb78f2407c090b72e86ecaed24",
            "0x00000000000000000000000009c0126087ac47816516f049fe73ee3e8122a42c"
          ],
          "data": "0x0000000000000000000000000000000000000000000000000000000469236547",
          "blockHash": "0x7819cc02389352812f540ef563fa6826f000429086e5cb947dabf606d3720c78",
          "blockNumber": "0x498ff0",
          "transactionHash": "0x657848b1ab16606d7cf099ef7332aeb8ddeec9eca7284cd9f6362efb1e22847d",
          "transactionIndex": "0xb",
          "logIndex": "0x5",
          "removed": false
        },
        {
          "address": "0x6Ae43d3271ff6888e7Fc43Fd7321a503ff738951",
          "topics": [
            "0xb3d084820fb1a9decffb176436bd02558d15fac9b0ddfed8c465bc7359d7dce0",
            "0x000000000000000000000000f8fb3713d459d7c1018bd0a49d19b4c44290ebe5",
            "0x00000000000000000000000009c0126087ac47816516f049fe73ee3e8122a42c",
            "0x0000000000000000000000000000000000000000000000000000000000000000"
          ],
          "data": "0x00000000000000000000000009c0126087ac47816516f049fe73ee3e8122a42c00000000000000000000000000000000000000000000000000000004692365470000000000000000000000000000000000000000000000000000000000000002000000000000000000000000000000000000000007639e83343efea6251d9119",
          "blockHash": "0x7819cc02389352812f540ef563fa6826f000429086e5cb947dabf606d3720c78",
          "blockNumber": "0x498ff0",
          "transactionHash": "0x657848b1ab16606d7cf099ef7332aeb8ddeec9eca7284cd9f6362efb1e22847d",
          "transactionIndex": "0xb",
          "logIndex": "0x6",
          "removed": false
        }
      ],
      "status": "0x1",
      "logsBloom": "0x00020000000000000000000000000000000000000000000000000000000000800000000040000000000000000004000000000000002000020000000000000000000000000001000000000008000000000000000000000000000000040000000000000000020020000000000000000c00000000000000000008000010400000000000000001000000000000200000000000200000000000000000000000000000000000000000020000000000000000000000000000004000000000000000010002000002000001000000002000000000004000000000040000000000000020000000000000000000000000000001000000000000000820000000000000000000",
      "type": "0x2",
      "effectiveGasPrice": "0xb7f96bea"
    }
  ],
  "libraries": [],
  "pending": [],
  "returns": {},
  "timestamp": 1701698177,
  "chain": 11155111,
  "multi": false,
  "commit": "7fb8683"
}