{
  "transactions": [
    {
      "hash": "0xd7773cb4f4cee7a0500af5467717e521730da6909aaebda70b9317ab04798d06",
      "transactionType": "CALL",
      "contractName": "TestnetERC20",
      "contractAddress": "0xf8Fb3713D459D7C1018BD0A49D19b4C44290EBE5",
      "function": "approve(address,uint256)",
      "arguments": [
        "0x6Ae43d3271ff6888e7Fc43Fd7321a503ff738951",
        "10000000000000000"
      ],
      "transaction": {
        "type": "0x02",
        "from": "0x09c0126087ac47816516f049fe73ee3e8122a42c",
        "to": "0xf8fb3713d459d7c1018bd0a49d19b4c44290ebe5",
        "gas": "0xf97a",
        "value": "0x0",
        "data": "0x095ea7b30000000000000000000000006ae43d3271ff6888e7fc43fd7321a503ff738951000000000000000000000000000000000000000000000000002386f26fc10000",
        "nonce": "0xee",
        "accessList": []
      },
      "additionalContracts": [],
      "isFixedGasLimit": false
    },
    {
      "hash": "0x7b840c6bde23fc35691316040dbb5a4b4cb6a6380d91beeb2e501c665542ead3",
      "transactionType": "CALL",
      "contractName": "InitializableImmutableAdminUpgradeabilityProxy",
      "contractAddress": "0x6Ae43d3271ff6888e7Fc43Fd7321a503ff738951",
      "function": "supply(address,uint256,address,uint16)",
      "arguments": [
        "0xf8Fb3713D459D7C1018BD0A49D19b4C44290EBE5",
        "10000000000000000",
        "0x09c0126087ac47816516F049fE73Ee3e8122A42c",
        "0"
      ],
      "transaction": {
        "type": "0x02",
        "from": "0x09c0126087ac47816516f049fe73ee3e8122a42c",
        "to": "0x6ae43d3271ff6888e7fc43fd7321a503ff738951",
        "gas": "0x39304",
        "value": "0x0",
        "data": "0x617ba037000000000000000000000000f8fb3713d459d7c1018bd0a49d19b4c44290ebe5000000000000000000000000000000000000000000000000002386f26fc1000000000000000000000000000009c0126087ac47816516f049fe73ee3e8122a42c0000000000000000000000000000000000000000000000000000000000000000",
        "nonce": "0xef",
        "accessList": []
      },
      "additionalContracts": [],
      "isFixedGasLimit": false
    }
  ],
  "receipts": [
    {
      "transactionHash": "0xd7773cb4f4cee7a0500af5467717e521730da6909aaebda70b9317ab04798d06",
      "transactionIndex": "0x11",
      "blockHash": "0x13944c88447b1cd1461eb8f7192300c79ccd4b9fbd5b3060b4635a5556debe6e",
      "blockNumber": "0x4946eb",
      "from": "0x09c0126087ac47816516F049fE73Ee3e8122A42c",
      "to": "0xf8Fb3713D459D7C1018BD0A49D19b4C44290EBE5",
      "cumulativeGasUsed": "0xf29a1",
      "gasUsed": "0xb49f",
      "contractAddress": null,
      "logs": [
        {
          "address": "0xf8Fb3713D459D7C1018BD0A49D19b4C44290EBE5",
          "topics": [
            "0x8c5be1e5ebec7d5bd14f71427d1e84f3dd0314c0f7b2291e5b200ac8c7c3b925",
            "0x00000000000000000000000009c0126087ac47816516f049fe73ee3e8122a42c",
            "0x0000000000000000000000006ae43d3271ff6888e7fc43fd7321a503ff738951"
          ],
          "data": "0x000000000000000000000000000000000000000000000000002386f26fc10000",
          "blockHash": "0x13944c88447b1cd1461eb8f7192300c79ccd4b9fbd5b3060b4635a5556debe6e",
          "blockNumber": "0x4946eb",
          "transactionHash": "0xd7773cb4f4cee7a0500af5467717e521730da6909aaebda70b9317ab04798d06",
          "transactionIndex": "0x11",
          "logIndex": "0x2",
          "removed": false
        }
      ],
      "status": "0x1",
      "logsBloom": "0x00000000000000000000000000000000000000000000000000000000000000800000000000000000000000000000000000040000000000020000000000200000000000000000000000000000000000000000000000000000000000000000200000000000000000000000000000000400000000000000000000000000000000002000000000000000000000200000000000000000000000000000000000000000020000000000000000000000000000000000000000004000000000000000000000000000000000000000000000000000000000000000000000000000000000000010000000000000000000000000000000000000000020000000000000000000",
      "type": "0x2",
      "effectiveGasPrice": "0xc12385da"
    },
    {
      "transactionHash": "0x7b840c6bde23fc35691316040dbb5a4b4cb6a6380d91beeb2e501c665542ead3",
      "transactionIndex": "0x12",
      "blockHash": "0x13944c88447b1cd1461eb8f7192300c79ccd4b9fbd5b3060b4635a5556debe6e",
      "blockNumber": "0x4946eb",
      "from": "0x09c0126087ac47816516F049fE73Ee3e8122A42c",
      "to": "0x6Ae43d3271ff6888e7Fc43Fd7321a503ff738951",
      "cumulativeGasUsed": "0x11c016",
      "gasUsed": "0x29675",
      "contractAddress": null,
      "logs": [
        {
          "address": "0x6Ae43d3271ff6888e7Fc43Fd7321a503ff738951",
          "topics": [
            "0x804c9b842b2748a22bb64b345453a3de7ca54a6ca45ce00d415894979e22897a",
            "0x000000000000000000000000f8fb3713d459d7c1018bd0a49d19b4c44290ebe5"
          ],
          "data": "0x00000000000000000000000000000000000000000569fbb290c5f00bedda499200000000000000000000000000000000000000000804e9f25c48787ee659a068000000000000000000000000000000000000000007ba77b495946cf44c59a06800000000000000000000000000000000000000000419215d4caf7608a869532e00000000000000000000000000000000000000000476b08c031a9e37a74e7e72",
          "blockHash": "0x13944c88447b1cd1461eb8f7192300c79ccd4b9fbd5b3060b4635a5556debe6e",
          "blockNumber": "0x4946eb",
          "transactionHash": "0x7b840c6bde23fc35691316040dbb5a4b4cb6a6380d91beeb2e501c665542ead3",
          "transactionIndex": "0x12",
          "logIndex": "0x3",
          "removed": false
        },
        {
          "address": "0xf8Fb3713D459D7C1018BD0A49D19b4C44290EBE5",
          "topics": [
            "0xddf252ad1be2c89b69c2b068fc378daa952ba7f163c4a11628f55a4df523b3ef",
            "0x00000000000000000000000009c0126087ac47816516f049fe73ee3e8122a42c",
            "0x0000000000000000000000003ffaf50d4f4e96eb78f2407c090b72e86ecaed24"
          ],
          "data": "0x000000000000000000000000000000000000000000000000002386f26fc10000",
          "blockHash": "0x13944c88447b1cd1461eb8f7192300c79ccd4b9fbd5b3060b4635a5556debe6e",
          "blockNumber": "0x4946eb",
          "transactionHash": "0x7b840c6bde23fc35691316040dbb5a4b4cb6a6380d91beeb2e501c665542ead3",
          "transactionIndex": "0x12",
          "logIndex": "0x4",
          "removed": false
        },
        {
          "address": "0xf8Fb3713D459D7C1018BD0A49D19b4C44290EBE5",
          "topics": [
            "0x8c5be1e5ebec7d5bd14f71427d1e84f3dd0314c0f7b2291e5b200ac8c7c3b925",
            "0x00000000000000000000000009c0126087ac47816516f049fe73ee3e8122a42c",
            "0x0000000000000000000000006ae43d3271ff6888e7fc43fd7321a503ff738951"
          ],
          "data": "0x0000000000000000000000000000000000000000000000000000000000000000",
          "blockHash": "0x13944c88447b1cd1461eb8f7192300c79ccd4b9fbd5b3060b4635a5556debe6e",
          "blockNumber": "0x4946eb",
          "transactionHash": "0x7b840c6bde23fc35691316040dbb5a4b4cb6a6380d91beeb2e501c665542ead3",
          "transactionIndex": "0x12",
          "logIndex": "0x5",
          "removed": false
        },
        {
          "address": "0x3FfAf50D4F4E96eB78f2407c090b72e86eCaed24",
          "topics": [
            "0xddf252ad1be2c89b69c2b068fc378daa952ba7f163c4a11628f55a4df523b3ef",
            "0x0000000000000000000000000000000000000000000000000000000000000000",
            "0x00000000000000000000000009c0126087ac47816516f049fe73ee3e8122a42c"
          ],
          "data": "0x000000000000000000000000000000000000000000000000002386f26fc10000",
          "blockHash": "0x13944c88447b1cd1461eb8f7192300c79ccd4b9fbd5b3060b4635a5556debe6e",
          "blockNumber": "0x4946eb",
          "transactionHash": "0x7b840c6bde23fc35691316040dbb5a4b4cb6a6380d91beeb2e501c665542ead3",
          "transactionIndex": "0x12",
          "logIndex": "0x6",
          "removed": false
        },
        {
          "address": "0x3FfAf50D4F4E96eB78f2407c090b72e86eCaed24",
          "topics": [
            "0x458f5fa412d0f69b08dd84872b0215675cc67bc1d5b6fd93300a1c3878b86196",
            "0x00000000000000000000000009c0126087ac47816516f049fe73ee3e8122a42c",
            "0x00000000000000000000000009c0126087ac47816516f049fe73ee3e8122a42c"
          ],
          "data": "0x000000000000000000000000000000000000000000000000002386f26fc10000000000000000000000000000000000000000000000000000000000000000000000000000000000000000000000000000000000000419215d4caf7608a869532e",
          "blockHash": "0x13944c88447b1cd1461eb8f7192300c79ccd4b9fbd5b3060b4635a5556debe6e",
          "blockNumber": "0x4946eb",
          "transactionHash": "0x7b840c6bde23fc35691316040dbb5a4b4cb6a6380d91beeb2e501c665542ead3",
          "transactionIndex": "0x12",
          "logIndex": "0x7",
          "removed": false
        },
        {
          "address": "0x6Ae43d3271ff6888e7Fc43Fd7321a503ff738951",
          "topics": [
            "0x00058a56ea94653cdf4f152d227ace22d4c00ad99e2a43f58cb7d9e3feb295f2",
            "0x000000000000000000000000f8fb3713d459d7c1018bd0a49d19b4c44290ebe5",
            "0x00000000000000000000000009c0126087ac47816516f049fe73ee3e8122a42c"
          ],
          "data": "0x",
          "blockHash": "0x13944c88447b1cd1461eb8f7192300c79ccd4b9fbd5b3060b4635a5556debe6e",
          "blockNumber": "0x4946eb",
          "transactionHash": "0x7b840c6bde23fc35691316040dbb5a4b4cb6a6380d91beeb2e501c665542ead3",
          "transactionIndex": "0x12",
          "logIndex": "0x8",
          "removed": false
        },
        {
          "address": "0x6Ae43d3271ff6888e7Fc43Fd7321a503ff738951",
          "topics": [
            "0x2b627736bca15cd5381dcf80b0bf11fd197d01a037c52b927a881a10fb73ba61",
            "0x000000000000000000000000f8fb3713d459d7c1018bd0a49d19b4c44290ebe5",
            "0x00000000000000000000000009c0126087ac47816516f049fe73ee3e8122a42c",
            "0x0000000000000000000000000000000000000000000000000000000000000000"
          ],
          "data": "0x00000000000000000000000009c0126087ac47816516f049fe73ee3e8122a42c000000000000000000000000000000000000000000000000002386f26fc10000",
          "blockHash": "0x13944c88447b1cd1461eb8f7192300c79ccd4b9fbd5b3060b4635a5556debe6e",
          "blockNumber": "0x4946eb",
          "transactionHash": "0x7b840c6bde23fc35691316040dbb5a4b4cb6a6380d91beeb2e501c665542ead3",
          "transactionIndex": "0x12",
          "logIndex": "0x9",
          "removed": false
        }
      ],
      "status": "0x1",
      "logsBloom": "0x00020000000008000080000000000000000000000000000000000000000000800000000000000000000000000004000000040000002000020000000000200000000000000000000000000008000000000000000000000000000000040000200000000000020000000000001000000c00000000000000000008000010400000002000008081000000000000200000000000200000000000000000000000000000020000000000020000000000000000000000000000004000000000000000010002000002000000000000002040000000004000000000000000000000000020000010000000000000000000000000000040000000000820000000400001000000",
      "type": "0x2",
      "effectiveGasPrice": "0xc12385da"
    }
  ],
  "libraries": [],
  "pending": [],
  "returns": {},
  "timestamp": 1701442673,
  "chain": 11155111,
  "multi": false,
  "commit": "fd61391"
}