{
  "transactions": [
    {
      "hash": "0x81d41572badd0b7b9a70a9918346dbeb834d8686079447c2f80aa38635e9acc9",
      "transactionType": "CALL",
      "contractName": "WrappedTokenGatewayV3",
      "contractAddress": "0x387d311e47e80b498169e6fb51d3193167d89F7D",
      "function": "depositETH(address,address,uint16)",
      "arguments": [
        "0x6Ae43d3271ff6888e7Fc43Fd7321a503ff738951",
        "0x09c0126087ac47816516F049fE73Ee3e8122A42c",
        "0"
      ],
      "transaction": {
        "type": "0x02",
        "from": "0x09c0126087ac47816516f049fe73ee3e8122a42c",
        "to": "0x387d311e47e80b498169e6fb51d3193167d89f7d",
        "gas": "0x35c11",
        "value": "0x38d7ea4c68000",
        "data": "0x474cf53d0000000000000000000000006ae43d3271ff6888e7fc43fd7321a503ff73895100000000000000000000000009c0126087ac47816516f049fe73ee3e8122a42c0000000000000000000000000000000000000000000000000000000000000000",
        "nonce": "0xe0",
        "accessList": []
      },
      "additionalContracts": [],
      "isFixedGasLimit": false
    }
  ],
  "receipts": [
    {
      "transactionHash": "0x81d41572badd0b7b9a70a9918346dbeb834d8686079447c2f80aa38635e9acc9",
      "transactionIndex": "0x1e",
      "blockHash": "0xcc0c789f6dab982e4fc9a8b61e9be5962e93279543500c2420d0fcc564807c71",
      "blockNumber": "0x492e77",
      "from": "0x09c0126087ac47816516F049fE73Ee3e8122A42c",
      "to": "0x387d311e47e80b498169e6fb51d3193167d89F7D",
      "cumulativeGasUsed": "0x368956",
      "gasUsed": "0x26ead",
      "contractAddress": null,
      "logs": [
        {
          "address": "0xC558DBdd856501FCd9aaF1E62eae57A9F0629a3c",
          "topics": [
            "0xe1fffcc4923d04b559f4d29a8bfc6cda04eb5b0d3c460751c2402c5c5cc9109c",
            "0x000000000000000000000000387d311e47e80b498169e6fb51d3193167d89f7d"
          ],
          "data": "0x00000000000000000000000000000000000000000000000000038d7ea4c68000",
          "blockHash": "0xcc0c789f6dab982e4fc9a8b61e9be5962e93279543500c2420d0fcc564807c71",
          "blockNumber": "0x492e77",
          "transactionHash": "0x81d41572badd0b7b9a70a9918346dbeb834d8686079447c2f80aa38635e9acc9",
          "transactionIndex": "0x1e",
          "logIndex": "0x1d",
          "removed": false
        },
        {
          "address": "0x6Ae43d3271ff6888e7Fc43Fd7321a503ff738951",
          "topics": [
            "0x804c9b842b2748a22bb64b345453a3de7ca54a6ca45ce00d415894979e22897a",
            "0x000000000000000000000000c558dbdd856501fcd9aaf1e62eae57a9f0629a3c"
          ],
          "data": "0x00000000000000000000000000000000000000000000000000000000000000000000000000000000000000000000000000000000004a723dc6b40b8a9a00000000000000000000000000000000000000000000000000000000000000000000000000000000000000000000000000000000000000033b3046872e2fe1c4b3967f0000000000000000000000000000000000000000033b2e3c9fd0803ce8000000",
          "blockHash": "0xcc0c789f6dab982e4fc9a8b61e9be5962e93279543500c2420d0fcc564807c71",
          "blockNumber": "0x492e77",
          "transactionHash": "0x81d41572badd0b7b9a70a9918346dbeb834d8686079447c2f80aa38635e9acc9",
          "transactionIndex": "0x1e",
          "logIndex": "0x1e",
          "removed": false
        },
        {
          "address": "0xC558DBdd856501FCd9aaF1E62eae57A9F0629a3c",
          "topics": [
            "0xddf252ad1be2c89b69c2b068fc378daa952ba7f163c4a11628f55a4df523b3ef",
            "0x000000000000000000000000387d311e47e80b498169e6fb51d3193167d89f7d",
            "0x0000000000000000000000005b071b590a59395fe4025a0ccc1fcc931aac1830"
          ],
          "data": "0x00000000000000000000000000000000000000000000000000038d7ea4c68000",
          "blockHash": "0xcc0c789f6dab982e4fc9a8b61e9be5962e93279543500c2420d0fcc564807c71",
          "blockNumber": "0x492e77",
          "transactionHash": "0x81d41572badd0b7b9a70a9918346dbeb834d8686079447c2f80aa38635e9acc9",
          "transactionIndex": "0x1e",
          "logIndex": "0x1f",
          "removed": false
        },
        {
          "address": "0x5b071b590a59395fE4025A0Ccc1FcC931AAc1830",
          "topics": [
            "0xddf252ad1be2c89b69c2b068fc378daa952ba7f163c4a11628f55a4df523b3ef",
            "0x0000000000000000000000000000000000000000000000000000000000000000",
            "0x00000000000000000000000009c0126087ac47816516f049fe73ee3e8122a42c"
          ],
          "data": "0x00000000000000000000000000000000000000000000000000038d7ea4c68000",
          "blockHash": "0xcc0c789f6dab982e4fc9a8b61e9be5962e93279543500c2420d0fcc564807c71",
          "blockNumber": "0x492e77",
          "transactionHash": "0x81d41572badd0b7b9a70a9918346dbeb834d8686079447c2f80aa38635e9acc9",
          "transactionIndex": "0x1e",
          "logIndex": "0x20",
          "removed": false
        },
        {
          "address": "0x5b071b590a59395fE4025A0Ccc1FcC931AAc1830",
          "topics": [
            "0x458f5fa412d0f69b08dd84872b0215675cc67bc1d5b6fd93300a1c3878b86196",
            "0x000000000000000000000000387d311e47e80b498169e6fb51d3193167d89f7d",
            "0x00000000000000000000000009c0126087ac47816516f049fe73ee3e8122a42c"
          ],
          "data": "0x00000000000000000000000000000000000000000000000000038d7ea4c6800000000000000000000000000000000000000000000000000000000000000000000000000000000000000000000000000000000000033b3046872e2fe1c4b3967f",
          "blockHash": "0xcc0c789f6dab982e4fc9a8b61e9be5962e93279543500c2420d0fcc564807c71",
          "blockNumber": "0x492e77",
          "transactionHash": "0x81d41572badd0b7b9a70a9918346dbeb834d8686079447c2f80aa38635e9acc9",
          "transactionIndex": "0x1e",
          "logIndex": "0x21",
          "removed": false
        },
        {
          "address": "0x6Ae43d3271ff6888e7Fc43Fd7321a503ff738951",
          "topics": [
            "0x2b627736bca15cd5381dcf80b0bf11fd197d01a037c52b927a881a10fb73ba61",
            "0x000000000000000000000000c558dbdd856501fcd9aaf1e62eae57a9f0629a3c",
            "0x00000000000000000000000009c0126087ac47816516f049fe73ee3e8122a42c",
            "0x0000000000000000000000000000000000000000000000000000000000000000"
          ],
          "data": "0x000000000000000000000000387d311e47e80b498169e6fb51d3193167d89f7d00000000000000000000000000000000000000000000000000038d7ea4c68000",
          "blockHash": "0xcc0c789f6dab982e4fc9a8b61e9be5962e93279543500c2420d0fcc564807c71",
          "blockNumber": "0x492e77",
          "transactionHash": "0x81d41572badd0b7b9a70a9918346dbeb834d8686079447c2f80aa38635e9acc9",
          "transactionIndex": "0x1e",
          "logIndex": "0x22",
          "removed": false
        }
      ],
      "status": "0x1",
      "logsBloom": "0x0000000000004000080000000000000000000000100000000000000000000000000000000000000000000000000c000000000000002000000100000000000000000000000000000000400008000000000000000000000000000000048000000000000000020000000000000000000800000000002000000000000110000000000000000001020000000000200000000000200001000000002000000000000000000000000000004000000000000000000000000000004000000800000000010002000002000000000000002040000000000000000000000000000000000020400000000800000000000000000000000040000000000020400000401000000000",
      "type": "0x2",
      "effectiveGasPrice": "0xbfb8176e"
    }
  ],
  "libraries": [],
  "pending": [],
  "returns": {},
  "timestamp": 1701357880,
  "chain": 11155111,
  "multi": false,
  "commit": "b9496e1"
}