{
  "transactions": [
    {
      "hash": "0x0ea1d9614e43cc11ddabac70c8db54357272e5f70e7f26b83143119bf5c3ae9c",
      "transactionType": "CALL",
      "contractName": "AToken",
      "contractAddress": "0x48424f2779be0f03cDF6F02E17A591A9BF7AF89f",
      "function": "approve(address,uint256)",
      "arguments": [
        "0x6Ae43d3271ff6888e7Fc43Fd7321a503ff738951",
        "10000000000000000"
      ],
      "transaction": {
        "type": "0x02",
        "from": "0x09c0126087ac47816516f049fe73ee3e8122a42c",
        "to": "0x48424f2779be0f03cdf6f02e17a591a9bf7af89f",
        "gas": "0x8dd1",
        "value": "0x0",
        "data": "0x095ea7b30000000000000000000000006ae43d3271ff6888e7fc43fd7321a503ff738951000000000000000000000000000000000000000000000000002386f26fc10000",
        "nonce": "0xdd",
        "accessList": []
      },
      "additionalContracts": [],
      "isFixedGasLimit": false
    },
    {
      "hash": "0xca06c744c5af7e15ee5069ff2f4f3636b946e19f4863b0dccead48ac7685a471",
      "transactionType": "CALL",
      "contractName": "WrappedTokenGatewayV3",
      "contractAddress": "0x387d311e47e80b498169e6fb51d3193167d89F7D",
      "function": "depositETH(address,address,uint16)",
      "arguments": [
        "0x6Ae43d3271ff6888e7Fc43Fd7321a503ff738951",
        "0x09c0126087ac47816516F049fE73Ee3e8122A42c",
        "0"
      ],
      "transaction": {
        "type": "0x02",
        "from": "0x09c0126087ac47816516f049fe73ee3e8122a42c",
        "to": "0x387d311e47e80b498169e6fb51d3193167d89f7d",
        "gas": "0x35c11",
        "value": "0x2386f26fc10000",
        "data": "0x474cf53d0000000000000000000000006ae43d3271ff6888e7fc43fd7321a503ff73895100000000000000000000000009c0126087ac47816516f049fe73ee3e8122a42c0000000000000000000000000000000000000000000000000000000000000000",
        "nonce": "0xde",
        "accessList": []
      },
      "additionalContracts": [],
      "isFixedGasLimit": false
    }
  ],
  "receipts": [],
  "libraries": [],
  "pending": [
    "0x0ea1d9614e43cc11ddabac70c8db54357272e5f70e7f26b83143119bf5c3ae9c",
    "0xca06c744c5af7e15ee5069ff2f4f3636b946e19f4863b0dccead48ac7685a471"
  ],
  "returns": {},
  "timestamp": 1701356511,
  "chain": 11155111,
  "multi": false,
  "commit": "b9496e1"
}