{
  "transactions": [
    {
      "hash": "0x4af694463fe1517ce68de1d1c7c68a61d0583718a8c05e370dfa1659d0fdab1c",
      "transactionType": "CALL",
      "contractName": "TestnetERC20",
      "contractAddress": "0xf8Fb3713D459D7C1018BD0A49D19b4C44290EBE5",
      "function": "approve(address,uint256)",
      "arguments": [
        "0x6Ae43d3271ff6888e7Fc43Fd7321a503ff738951",
        "2200000000000"
      ],
      "transaction": {
        "type": "0x02",
        "from": "0x09c0126087ac47816516f049fe73ee3e8122a42c",
        "to": "0xf8fb3713d459d7c1018bd0a49d19b4c44290ebe5",
        "gas": "0x10816",
        "value": "0x0",
        "data": "0x095ea7b30000000000000000000000006ae43d3271ff6888e7fc43fd7321a503ff738951000000000000000000000000000000000000000000000000000002003a37f000",
        "nonce": "0xf8",
        "accessList": []
      },
      "additionalContracts": [],
      "isFixedGasLimit": false
    },
    {
      "hash": "0x0a59bf3cbb835e8070e326e5fbaad100c976af39f632e7aec8640fa9f9e136b6",
      "transactionType": "CALL",
      "contractName": "InitializableImmutableAdminUpgradeabilityProxy",
      "contractAddress": "0x6Ae43d3271ff6888e7Fc43Fd7321a503ff738951",
      "function": "repay(address,uint256,uint256,address)",
      "arguments": [
        "0xf8Fb3713D459D7C1018BD0A49D19b4C44290EBE5",
        "2200000000000",
        "2",
        "0x09c0126087ac47816516F049fE73Ee3e8122A42c"
      ],
      "transaction": {
        "type": "0x02",
        "from": "0x09c0126087ac47816516f049fe73ee3e8122a42c",
        "to": "0x6ae43d3271ff6888e7fc43fd7321a503ff738951",
        "gas": "0x3e477",
        "value": "0x0",
        "data": "0x573ade81000000000000000000000000f8fb3713d459d7c1018bd0a49d19b4c44290ebe5000000000000000000000000000000000000000000000000000002003a37f000000000000000000000000000000000000000000000000000000000000000000200000000000000000000000009c0126087ac47816516f049fe73ee3e8122a42c",
        "nonce": "0xf9",
        "accessList": []
      },
      "additionalContracts": [],
      "isFixedGasLimit": false
    }
  ],
  "receipts": [],
  "libraries": [],
  "pending": [
    "0x4af694463fe1517ce68de1d1c7c68a61d0583718a8c05e370dfa1659d0fdab1c",
    "0x0a59bf3cbb835e8070e326e5fbaad100c976af39f632e7aec8640fa9f9e136b6"
  ],
  "returns": {},
  "timestamp": 1701697053,
  "chain": 11155111,
  "multi": false,
  "commit": "7fb8683"
}