{
  "transactions": [
    {
      "hash": "0xb4f3dabb55cf4163c1bd1a2793bbb346e030a1362c19e0871781c5a5851a9eaa",
      "transactionType": "CALL",
      "contractName": "AToken",
      "contractAddress": "0x48424f2779be0f03cDF6F02E17A591A9BF7AF89f",
      "function": "approve(address,uint256)",
      "arguments": [
        "0x6Ae43d3271ff6888e7Fc43Fd7321a503ff738951",
        "10000000000000000"
      ],
      "transaction": {
        "type": "0x02",
        "from": "0x09c0126087ac47816516f049fe73ee3e8122a42c",
        "to": "0x48424f2779be0f03cdf6f02e17a591a9bf7af89f",
        "gas": "0x8dd1",
        "value": "0x0",
        "data": "0x095ea7b30000000000000000000000006ae43d3271ff6888e7fc43fd7321a503ff738951000000000000000000000000000000000000000000000000002386f26fc10000",
        "nonce": "0xdb",
        "accessList": []
      },
      "additionalContracts": [],
      "isFixedGasLimit": false
    },
    {
      "hash": "0x8d024c57c68d7de509501b3aa0f3a647d0ce172aaec7ecbb769bf59396a96829",
      "transactionType": "CALL",
      "contractName": null,
      "contractAddress": "0x387d311e47e80b498169e6fb51d3193167d89F7D",
      "function": null,
      "arguments": null,
      "transaction": {
        "type": "0x02",
        "from": "0x09c0126087ac47816516f049fe73ee3e8122a42c",
        "to": "0x387d311e47e80b498169e6fb51d3193167d89f7d",
        "gas": "0x35c11",
        "value": "0x2386f26fc10000",
        "data": "0x474cf53d0000000000000000000000006ae43d3271ff6888e7fc43fd7321a503ff73895100000000000000000000000009c0126087ac47816516f049fe73ee3e8122a42c0000000000000000000000000000000000000000000000000000000000000000",
        "nonce": "0xdc",
        "accessList": []
      },
      "additionalContracts": [],
      "isFixedGasLimit": false
    }
  ],
  "receipts": [],
  "libraries": [],
  "pending": [
    "0xb4f3dabb55cf4163c1bd1a2793bbb346e030a1362c19e0871781c5a5851a9eaa",
    "0x8d024c57c68d7de509501b3aa0f3a647d0ce172aaec7ecbb769bf59396a96829"
  ],
  "returns": {},
  "timestamp": 1701356299,
  "chain": 11155111,
  "multi": false,
  "commit": "b9496e1"
}