{
  "transactions": [
    {
      "hash": "0xd8d60f0e579e2e501dbacba6804c19f8de7087dfa35da656d9f7643529ef2bd9",
      "transactionType": "CALL",
      "contractName": "TestnetERC20",
      "contractAddress": "0xf8Fb3713D459D7C1018BD0A49D19b4C44290EBE5",
      "function": "approve(address,uint256)",
      "arguments": [
        "0x6Ae43d3271ff6888e7Fc43Fd7321a503ff738951",
        "10000000000"
      ],
      "transaction": {
        "type": "0x02",
        "from": "0x09c0126087ac47816516f049fe73ee3e8122a42c",
        "to": "0xf8fb3713d459d7c1018bd0a49d19b4c44290ebe5",
        "gas": "0x10816",
        "value": "0x0",
        "data": "0x095ea7b30000000000000000000000006ae43d3271ff6888e7fc43fd7321a503ff73895100000000000000000000000000000000000000000000000000000002540be400",
        "nonce": "0xf3",
        "accessList": []
      },
      "additionalContracts": [],
      "isFixedGasLimit": false
    },
    {
      "hash": "0x1c1951fffad521d1c26d9b0043a1c895fb1f162346d57aeb2a069d328c47c081",
      "transactionType": "CALL",
      "contractName": "InitializableImmutableAdminUpgradeabilityProxy",
      "contractAddress": "0x6Ae43d3271ff6888e7Fc43Fd7321a503ff738951",
      "function": "supply(address,uint256,address,uint16)",
      "arguments": [
        "0xf8Fb3713D459D7C1018BD0A49D19b4C44290EBE5",
        "10000000000",
        "0x09c0126087ac47816516F049fE73Ee3e8122A42c",
        "0"
      ],
      "transaction": {
        "type": "0x02",
        "from": "0x09c0126087ac47816516f049fe73ee3e8122a42c",
        "to": "0x6ae43d3271ff6888e7fc43fd7321a503ff738951",
        "gas": "0x3aca1",
        "value": "0x0",
        "data": "0x617ba037000000000000000000000000f8fb3713d459d7c1018bd0a49d19b4c44290ebe500000000000000000000000000000000000000000000000000000002540be40000000000000000000000000009c0126087ac47816516f049fe73ee3e8122a42c0000000000000000000000000000000000000000000000000000000000000000",
        "nonce": "0xf4",
        "accessList": []
      },
      "additionalContracts": [],
      "isFixedGasLimit": false
    }
  ],
  "receipts": [
    {
      "transactionHash": "0xd8d60f0e579e2e501dbacba6804c19f8de7087dfa35da656d9f7643529ef2bd9",
      "transactionIndex": "0x3",
      "blockHash": "0xa4d3b1cb59f29870c9f2dfe89767bf23daab4de098fb6df118c2c585c12507ce",
      "blockNumber": "0x4967de",
      "from": "0x09c0126087ac47816516F049fE73Ee3e8122A42c",
      "to": "0xf8Fb3713D459D7C1018BD0A49D19b4C44290EBE5",
      "cumulativeGasUsed": "0xbf3c8",
      "gasUsed": "0xb493",
      "contractAddress": null,
      "logs": [
        {
          "address": "0xf8Fb3713D459D7C1018BD0A49D19b4C44290EBE5",
          "topics": [
            "0x8c5be1e5ebec7d5bd14f71427d1e84f3dd0314c0f7b2291e5b200ac8c7c3b925",
            "0x00000000000000000000000009c0126087ac47816516f049fe73ee3e8122a42c",
            "0x0000000000000000000000006ae43d3271ff6888e7fc43fd7321a503ff738951"
          ],
          "data": "0x00000000000000000000000000000000000000000000000000000002540be400",
          "blockHash": "0xa4d3b1cb59f29870c9f2dfe89767bf23daab4de098fb6df118c2c585c12507ce",
          "blockNumber": "0x4967de",
          "transactionHash": "0xd8d60f0e579e2e501dbacba6804c19f8de7087dfa35da656d9f7643529ef2bd9",
          "transactionIndex": "0x3",
          "logIndex": "0x0",
          "removed": false
        }
      ],
      "status": "0x1",
      "logsBloom": "0x00000000000000000000000000000000000000000000000000000000000000800000000000000000000000000000000000040000000000020000000000200000000000000000000000000000000000000000000000000000000000000000200000000000000000000000000000000400000000000000000000000000000000002000000000000000000000200000000000000000000000000000000000000000020000000000000000000000000000000000000000004000000000000000000000000000000000000000000000000000000000000000000000000000000000000010000000000000000000000000000000000000000020000000000000000000",
      "type": "0x2",
      "effectiveGasPrice": "0xb7c14a15"
    },
    {
      "transactionHash": "0x1c1951fffad521d1c26d9b0043a1c895fb1f162346d57aeb2a069d328c47c081",
      "transactionIndex": "0x4",
      "blockHash": "0xa4d3b1cb59f29870c9f2dfe89767bf23daab4de098fb6df118c2c585c12507ce",
      "blockNumber": "0x4967de",
      "from": "0x09c0126087ac47816516F049fE73Ee3e8122A42c",
      "to": "0x6Ae43d3271ff6888e7Fc43Fd7321a503ff738951",
      "cumulativeGasUsed": "0xe76f3",
      "gasUsed": "0x2832b",
      "contractAddress": null,
      "logs": [
        {
          "address": "0x6Ae43d3271ff6888e7Fc43Fd7321a503ff738951",
          "topics": [
            "0x804c9b842b2748a22bb64b345453a3de7ca54a6ca45ce00d415894979e22897a",
            "0x000000000000000000000000f8fb3713d459d7c1018bd0a49d19b4c44290ebe5"
          ],
          "data": "0x0000000000000000000000000000000000000000054fc0f2ea1af55591321309000000000000000000000000000000000000000007ebdbf5d4d43225e9f64110000000000000000000000000000000000000000007a169b80e20269b4ff641100000000000000000000000000000000000000000041f87631757ea9d7d58686000000000000000000000000000000000000000000480b5e9f0df3ae1e3e9ffb2",
          "blockHash": "0xa4d3b1cb59f29870c9f2dfe89767bf23daab4de098fb6df118c2c585c12507ce",
          "blockNumber": "0x4967de",
          "transactionHash": "0x1c1951fffad521d1c26d9b0043a1c895fb1f162346d57aeb2a069d328c47c081",
          "transactionIndex": "0x4",
          "logIndex": "0x1",
          "removed": false
        },
        {
          "address": "0xf8Fb3713D459D7C1018BD0A49D19b4C44290EBE5",
          "topics": [
            "0xddf252ad1be2c89b69c2b068fc378daa952ba7f163c4a11628f55a4df523b3ef",
            "0x00000000000000000000000009c0126087ac47816516f049fe73ee3e8122a42c",
            "0x0000000000000000000000003ffaf50d4f4e96eb78f2407c090b72e86ecaed24"
          ],
          "data": "0x00000000000000000000000000000000000000000000000000000002540be400",
          "blockHash": "0xa4d3b1cb59f29870c9f2dfe89767bf23daab4de098fb6df118c2c585c12507ce",
          "blockNumber": "0x4967de",
          "transactionHash": "0x1c1951fffad521d1c26d9b0043a1c895fb1f162346d57aeb2a069d328c47c081",
          "transactionIndex": "0x4",
          "logIndex": "0x2",
          "removed": false
        },
        {
          "address": "0xf8Fb3713D459D7C1018BD0A49D19b4C44290EBE5",
          "topics": [
            "0x8c5be1e5ebec7d5bd14f71427d1e84f3dd0314c0f7b2291e5b200ac8c7c3b925",
            "0x00000000000000000000000009c0126087ac47816516f049fe73ee3e8122a42c",
            "0x0000000000000000000000006ae43d3271ff6888e7fc43fd7321a503ff738951"
          ],
          "data": "0x0000000000000000000000000000000000000000000000000000000000000000",
          "blockHash": "0xa4d3b1cb59f29870c9f2dfe89767bf23daab4de098fb6df118c2c585c12507ce",
          "blockNumber": "0x4967de",
          "transactionHash": "0x1c1951fffad521d1c26d9b0043a1c895fb1f162346d57aeb2a069d328c47c081",
          "transactionIndex": "0x4",
          "logIndex": "0x3",
          "removed": false
        },
        {
          "address": "0x3FfAf50D4F4E96eB78f2407c090b72e86eCaed24",
          "topics": [
            "0xddf252ad1be2c89b69c2b068fc378daa952ba7f163c4a11628f55a4df523b3ef",
            "0x0000000000000000000000000000000000000000000000000000000000000000",
            "0x00000000000000000000000009c0126087ac47816516f049fe73ee3e8122a42c"
          ],
          "data": "0x000000000000000000000000000000000000000000000000006c5c4fa33cd0ac",
          "blockHash": "0xa4d3b1cb59f29870c9f2dfe89767bf23daab4de098fb6df118c2c585c12507ce",
          "blockNumber": "0x4967de",
          "transactionHash": "0x1c1951fffad521d1c26d9b0043a1c895fb1f162346d57aeb2a069d328c47c081",
          "transactionIndex": "0x4",
          "logIndex": "0x4",
          "removed": false
        },
        {
          "address": "0x3FfAf50D4F4E96eB78f2407c090b72e86eCaed24",
          "topics": [
            "0x458f5fa412d0f69b08dd84872b0215675cc67bc1d5b6fd93300a1c3878b86196",
            "0x00000000000000000000000009c0126087ac47816516f049fe73ee3e8122a42c",
            "0x00000000000000000000000009c0126087ac47816516f049fe73ee3e8122a42c"
          ],
          "data": "0x000000000000000000000000000000000000000000000000006c5c4fa33cd0ac000000000000000000000000000000000000000000000000006c5c4d4f30ecac0000000000000000000000000000000000000000041f87631757ea9d7d586860",
          "blockHash": "0xa4d3b1cb59f29870c9f2dfe89767bf23daab4de098fb6df118c2c585c12507ce",
          "blockNumber": "0x4967de",
          "transactionHash": "0x1c1951fffad521d1c26d9b0043a1c895fb1f162346d57aeb2a069d328c47c081",
          "transactionIndex": "0x4",
          "logIndex": "0x5",
          "removed": false
        },
        {
          "address": "0x6Ae43d3271ff6888e7Fc43Fd7321a503ff738951",
          "topics": [
            "0x2b627736bca15cd5381dcf80b0bf11fd197d01a037c52b927a881a10fb73ba61",
            "0x000000000000000000000000f8fb3713d459d7c1018bd0a49d19b4c44290ebe5",
            "0x00000000000000000000000009c0126087ac47816516f049fe73ee3e8122a42c",
            "0x0000000000000000000000000000000000000000000000000000000000000000"
          ],
          "data": "0x00000000000000000000000009c0126087ac47816516f049fe73ee3e8122a42c00000000000000000000000000000000000000000000000000000002540be400",
          "blockHash": "0xa4d3b1cb59f29870c9f2dfe89767bf23daab4de098fb6df118c2c585c12507ce",
          "blockNumber": "0x4967de",
          "transactionHash": "0x1c1951fffad521d1c26d9b0043a1c895fb1f162346d57aeb2a069d328c47c081",
          "transactionIndex": "0x4",
          "logIndex": "0x6",
          "removed": false
        }
      ],
      "status": "0x1",
      "logsBloom": "0x00020000000000000000000000000000000000000000000000000000000000800000000000000000000000000004000000040000002000020000000000200000000000000000000000000008000000000000000000000000000000040000200000000000020000000000001000000c00000000000000000008000010400000002000008001000000000000200000000000200000000000000000000000000000020000000000020000000000000000000000000000004000000000000000010002000002000000000000002040000000004000000000000000000000000020000010000000000000000000000000000040000000000820000000400001000000",
      "type": "0x2",
      "effectiveGasPrice": "0xb7c14a15"
    }
  ],
  "libraries": [],
  "pending": [],
  "returns": {},
  "timestamp": 1701559014,
  "chain": 11155111,
  "multi": false,
  "commit": "850785a"
}