{
  "transactions": [
    {
      "hash": "0xd7773cb4f4cee7a0500af5467717e521730da6909aaebda70b9317ab04798d06",
      "transactionType": "CALL",
      "contractName": "TestnetERC20",
      "contractAddress": "0xf8Fb3713D459D7C1018BD0A49D19b4C44290EBE5",
      "function": "approve(address,uint256)",
      "arguments": [
        "0x6Ae43d3271ff6888e7Fc43Fd7321a503ff738951",
        "10000000000000000"
      ],
      "transaction": {
        "type": "0x02",
        "from": "0x09c0126087ac47816516f049fe73ee3e8122a42c",
        "to": "0xf8fb3713d459d7c1018bd0a49d19b4c44290ebe5",
        "gas": "0xf97a",
        "value": "0x0",
        "data": "0x095ea7b30000000000000000000000006ae43d3271ff6888e7fc43fd7321a503ff738951000000000000000000000000000000000000000000000000002386f26fc10000",
        "nonce": "0xee",
        "accessList": []
      },
      "additionalContracts": [],
      "isFixedGasLimit": false
    },
    {
      "hash": "0x7b840c6bde23fc35691316040dbb5a4b4cb6a6380d91beeb2e501c665542ead3",
      "transactionType": "CALL",
      "contractName": "InitializableImmutableAdminUpgradeabilityProxy",
      "contractAddress": "0x6Ae43d3271ff6888e7Fc43Fd7321a503ff738951",
      "function": "supply(address,uint256,address,uint16)",
      "arguments": [
        "0xf8Fb3713D459D7C1018BD0A49D19b4C44290EBE5",
        "10000000000000000",
        "0x09c0126087ac47816516F049fE73Ee3e8122A42c",
        "0"
      ],
      "transaction": {
        "type": "0x02",
        "from": "0x09c0126087ac47816516f049fe73ee3e8122a42c",
        "to": "0x6ae43d3271ff6888e7fc43fd7321a503ff738951",
        "gas": "0x39304",
        "value": "0x0",
        "data": "0x617ba037000000000000000000000000f8fb3713d459d7c1018bd0a49d19b4c44290ebe5000000000000000000000000000000000000000000000000002386f26fc1000000000000000000000000000009c0126087ac47816516f049fe73ee3e8122a42c0000000000000000000000000000000000000000000000000000000000000000",
        "nonce": "0xef",
        "accessList": []
      },
      "additionalContracts": [],
      "isFixedGasLimit": false
    }
  ],
  "receipts": [],
  "libraries": [],
  "pending": [
    "0xd7773cb4f4cee7a0500af5467717e521730da6909aaebda70b9317ab04798d06",
    "0x7b840c6bde23fc35691316040dbb5a4b4cb6a6380d91beeb2e501c665542ead3"
  ],
  "returns": {},
  "timestamp": 1701442665,
  "chain": 11155111,
  "multi": false,
  "commit": "fd61391"
}