{
  "transactions": [
    {
      "hash": "0x87dd9e2a3bb0668d5363915f625f5d6da71c6f92a956b8945d1005a936cf186a",
      "transactionType": "CALL",
      "contractName": "TestnetERC20",
      "contractAddress": "0xf8Fb3713D459D7C1018BD0A49D19b4C44290EBE5",
      "function": "approve(address,uint256)",
      "arguments": [
        "0x6Ae43d3271ff6888e7Fc43Fd7321a503ff738951",
        "115792089237316195423570985008687907853269984665640564039457584007913129639935"
      ],
      "transaction": {
        "type": "0x02",
        "from": "0x09c0126087ac47816516f049fe73ee3e8122a42c",
        "to": "0xf8fb3713d459d7c1018bd0a49d19b4c44290ebe5",
        "gas": "0x9ef7",
        "value": "0x0",
        "data": "0x095ea7b30000000000000000000000006ae43d3271ff6888e7fc43fd7321a503ff738951ffffffffffffffffffffffffffffffffffffffffffffffffffffffffffffffff",
        "nonce": "0x102",
        "accessList": []
      },
      "additionalContracts": [],
      "isFixedGasLimit": false
    },
    {
      "hash": "0xa17de7620e6bd4a881c51a0011565e11d3f6b2fa8ec45135b052aaee14ec9711",
      "transactionType": "CALL",
      "contractName": "InitializableImmutableAdminUpgradeabilityProxy",
      "contractAddress": "0x6Ae43d3271ff6888e7Fc43Fd7321a503ff738951",
      "function": "repay(address,uint256,uint256,address)",
      "arguments": [
        "0xf8Fb3713D459D7C1018BD0A49D19b4C44290EBE5",
        "115792089237316195423570985008687907853269984665640564039457584007913129639935",
        "2",
        "0x09c0126087ac47816516F049fE73Ee3e8122A42c"
      ],
      "transaction": {
        "type": "0x02",
        "from": "0x09c0126087ac47816516f049fe73ee3e8122a42c",
        "to": "0x6ae43d3271ff6888e7fc43fd7321a503ff738951",
        "gas": "0x3e65d",
        "value": "0x0",
        "data": "0x573ade81000000000000000000000000f8fb3713d459d7c1018bd0a49d19b4c44290ebe5ffffffffffffffffffffffffffffffffffffffffffffffffffffffffffffffff000000000000000000000000000000000000000000000000000000000000000200000000000000000000000009c0126087ac47816516f049fe73ee3e8122a42c",
        "nonce": "0x103",
        "accessList": []
      },
      "additionalContracts": [],
      "isFixedGasLimit": false
    }
  ],
  "receipts": [],
  "libraries": [],
  "pending": [
    "0x87dd9e2a3bb0668d5363915f625f5d6da71c6f92a956b8945d1005a936cf186a",
    "0xa17de7620e6bd4a881c51a0011565e11d3f6b2fa8ec45135b052aaee14ec9711"
  ],
  "returns": {},
  "timestamp": 1701700077,
  "chain": 11155111,
  "multi": false,
  "commit": "7fb8683"
}