{
  "transactions": [
    {
      "hash": "0x87dd9e2a3bb0668d5363915f625f5d6da71c6f92a956b8945d1005a936cf186a",
      "transactionType": "CALL",
      "contractName": "TestnetERC20",
      "contractAddress": "0xf8Fb3713D459D7C1018BD0A49D19b4C44290EBE5",
      "function": "approve(address,uint256)",
      "arguments": [
        "0x6Ae43d3271ff6888e7Fc43Fd7321a503ff738951",
        "115792089237316195423570985008687907853269984665640564039457584007913129639935"
      ],
      "transaction": {
        "type": "0x02",
        "from": "0x09c0126087ac47816516f049fe73ee3e8122a42c",
        "to": "0xf8fb3713d459d7c1018bd0a49d19b4c44290ebe5",
        "gas": "0x9ef7",
        "value": "0x0",
        "data": "0x095ea7b30000000000000000000000006ae43d3271ff6888e7fc43fd7321a503ff738951ffffffffffffffffffffffffffffffffffffffffffffffffffffffffffffffff",
        "nonce": "0x102",
        "accessList": []
      },
      "additionalContracts": [],
      "isFixedGasLimit": false
    },
    {
      "hash": "0xa17de7620e6bd4a881c51a0011565e11d3f6b2fa8ec45135b052aaee14ec9711",
      "transactionType": "CALL",
      "contractName": "InitializableImmutableAdminUpgradeabilityProxy",
      "contractAddress": "0x6Ae43d3271ff6888e7Fc43Fd7321a503ff738951",
      "function": "repay(address,uint256,uint256,address)",
      "arguments": [
        "0xf8Fb3713D459D7C1018BD0A49D19b4C44290EBE5",
        "115792089237316195423570985008687907853269984665640564039457584007913129639935",
        "2",
        "0x09c0126087ac47816516F049fE73Ee3e8122A42c"
      ],
      "transaction": {
        "type": "0x02",
        "from": "0x09c0126087ac47816516f049fe73ee3e8122a42c",
        "to": "0x6ae43d3271ff6888e7fc43fd7321a503ff738951",
        "gas": "0x3e65d",
        "value": "0x0",
        "data": "0x573ade81000000000000000000000000f8fb3713d459d7c1018bd0a49d19b4c44290ebe5ffffffffffffffffffffffffffffffffffffffffffffffffffffffffffffffff000000000000000000000000000000000000000000000000000000000000000200000000000000000000000009c0126087ac47816516f049fe73ee3e8122a42c",
        "nonce": "0x103",
        "accessList": []
      },
      "additionalContracts": [],
      "isFixedGasLimit": false
    }
  ],
  "receipts": [
    {
      "transactionHash": "0x87dd9e2a3bb0668d5363915f625f5d6da71c6f92a956b8945d1005a936cf186a",
      "transactionIndex": "0x4",
      "blockHash": "0xee8239f4bfa8790c9f153ea86cb60c81fa93707ba95960a982d40eb053f4d5bc",
      "blockNumber": "0x499081",
      "from": "0x09c0126087ac47816516F049fE73Ee3e8122A42c",
      "to": "0xf8Fb3713D459D7C1018BD0A49D19b4C44290EBE5",
      "cumulativeGasUsed": "0x21c82",
      "gasUsed": "0x7317",
      "contractAddress": null,
      "logs": [
        {
          "address": "0xf8Fb3713D459D7C1018BD0A49D19b4C44290EBE5",
          "topics": [
            "0x8c5be1e5ebec7d5bd14f71427d1e84f3dd0314c0f7b2291e5b200ac8c7c3b925",
            "0x00000000000000000000000009c0126087ac47816516f049fe73ee3e8122a42c",
            "0x0000000000000000000000006ae43d3271ff6888e7fc43fd7321a503ff738951"
          ],
          "data": "0xffffffffffffffffffffffffffffffffffffffffffffffffffffffffffffffff",
          "blockHash": "0xee8239f4bfa8790c9f153ea86cb60c81fa93707ba95960a982d40eb053f4d5bc",
          "blockNumber": "0x499081",
          "transactionHash": "0x87dd9e2a3bb0668d5363915f625f5d6da71c6f92a956b8945d1005a936cf186a",
          "transactionIndex": "0x4",
          "logIndex": "0x0",
          "removed": false
        }
      ],
      "status": "0x1",
      "logsBloom": "0x00000000000000000000000000000000000000000000000000000000000000800000000000000000000000000000000000040000000000020000000000200000000000000000000000000000000000000000000000000000000000000000200000000000000000000000000000000400000000000000000000000000000000002000000000000000000000200000000000000000000000000000000000000000020000000000000000000000000000000000000000004000000000000000000000000000000000000000000000000000000000000000000000000000000000000010000000000000000000000000000000000000000020000000000000000000",
      "type": "0x2",
      "effectiveGasPrice": "0xb974ae06"
    },
    {
      "transactionHash": "0xa17de7620e6bd4a881c51a0011565e11d3f6b2fa8ec45135b052aaee14ec9711",
      "transactionIndex": "0x5",
      "blockHash": "0xee8239f4bfa8790c9f153ea86cb60c81fa93707ba95960a982d40eb053f4d5bc",
      "blockNumber": "0x499081",
      "from": "0x09c0126087ac47816516F049fE73Ee3e8122A42c",
      "to": "0x6Ae43d3271ff6888e7Fc43Fd7321a503ff738951",
      "cumulativeGasUsed": "0x4ef4f",
      "gasUsed": "0x2d2cd",
      "contractAddress": null,
      "logs": [
        {
          "address": "0x34a4d932E722b9dFb492B9D8131127690CE2430B",
          "topics": [
            "0xddf252ad1be2c89b69c2b068fc378daa952ba7f163c4a11628f55a4df523b3ef",
            "0x00000000000000000000000009c0126087ac47816516f049fe73ee3e8122a42c",
            "0x0000000000000000000000000000000000000000000000000000000000000000"
          ],
          "data": "0x00000000000000000000000000000000000000000000000029a2241f5f6a0ec1",
          "blockHash": "0xee8239f4bfa8790c9f153ea86cb60c81fa93707ba95960a982d40eb053f4d5bc",
          "blockNumber": "0x499081",
          "transactionHash": "0xa17de7620e6bd4a881c51a0011565e11d3f6b2fa8ec45135b052aaee14ec9711",
          "transactionIndex": "0x5",
          "logIndex": "0x1",
          "removed": false
        },
        {
          "address": "0x34a4d932E722b9dFb492B9D8131127690CE2430B",
          "topics": [
            "0x4cf25bc1d991c17529c25213d3cc0cda295eeaad5f13f361969b12ea48015f90",
            "0x00000000000000000000000009c0126087ac47816516f049fe73ee3e8122a42c",
            "0x0000000000000000000000000000000000000000000000000000000000000000"
          ],
          "data": "0x00000000000000000000000000000000000000000000000029a2241f5f6a0ec100000000000000000000000000000000000000000000000000008037e998309c0000000000000000000000000000000000000000048ced3e563a3d9e556a4149",
          "blockHash": "0xee8239f4bfa8790c9f153ea86cb60c81fa93707ba95960a982d40eb053f4d5bc",
          "blockNumber": "0x499081",
          "transactionHash": "0xa17de7620e6bd4a881c51a0011565e11d3f6b2fa8ec45135b052aaee14ec9711",
          "transactionIndex": "0x5",
          "logIndex": "0x2",
          "removed": false
        },
        {
          "address": "0x6Ae43d3271ff6888e7Fc43Fd7321a503ff738951",
          "topics": [
            "0x804c9b842b2748a22bb64b345453a3de7ca54a6ca45ce00d415894979e22897a",
            "0x000000000000000000000000f8fb3713d459d7c1018bd0a49d19b4c44290ebe5"
          ],
          "data": "0x0000000000000000000000000000000000000000051017bc17c5e63cab1a81a6000000000000000000000000000000000000000007ae24871acfce55b786a60100000000000000000000000000000000000000000763b249541bc2cb1d86a6010000000000000000000000000000000000000000042747c83b746f42b566f3500000000000000000000000000000000000000000048ced3e563a3d9e556a4149",
          "blockHash": "0xee8239f4bfa8790c9f153ea86cb60c81fa93707ba95960a982d40eb053f4d5bc",
          "blockNumber": "0x499081",
          "transactionHash": "0xa17de7620e6bd4a881c51a0011565e11d3f6b2fa8ec45135b052aaee14ec9711",
          "transactionIndex": "0x5",
          "logIndex": "0x3",
          "removed": false
        },
        {
          "address": "0xf8Fb3713D459D7C1018BD0A49D19b4C44290EBE5",
          "topics": [
            "0xddf252ad1be2c89b69c2b068fc378daa952ba7f163c4a11628f55a4df523b3ef",
            "0x00000000000000000000000009c0126087ac47816516f049fe73ee3e8122a42c",
            "0x0000000000000000000000003ffaf50d4f4e96eb78f2407c090b72e86ecaed24"
          ],
          "data": "0x00000000000000000000000000000000000000000000000029a2a45749023f5d",
          "blockHash": "0xee8239f4bfa8790c9f153ea86cb60c81fa93707ba95960a982d40eb053f4d5bc",
          "blockNumber": "0x499081",
          "transactionHash": "0xa17de7620e6bd4a881c51a0011565e11d3f6b2fa8ec45135b052aaee14ec9711",
          "transactionIndex": "0x5",
          "logIndex": "0x4",
          "removed": false
        },
        {
          "address": "0xf8Fb3713D459D7C1018BD0A49D19b4C44290EBE5",
          "topics": [
            "0x8c5be1e5ebec7d5bd14f71427d1e84f3dd0314c0f7b2291e5b200ac8c7c3b925",
            "0x00000000000000000000000009c0126087ac47816516f049fe73ee3e8122a42c",
            "0x0000000000000000000000006ae43d3271ff6888e7fc43fd7321a503ff738951"
          ],
          "data": "0xffffffffffffffffffffffffffffffffffffffffffffffffd65d5ba8b6fdc0a2",
          "blockHash": "0xee8239f4bfa8790c9f153ea86cb60c81fa93707ba95960a982d40eb053f4d5bc",
          "blockNumber": "0x499081",
          "transactionHash": "0xa17de7620e6bd4a881c51a0011565e11d3f6b2fa8ec45135b052aaee14ec9711",
          "transactionIndex": "0x5",
          "logIndex": "0x5",
          "removed": false
        },
        {
          "address": "0x6Ae43d3271ff6888e7Fc43Fd7321a503ff738951",
          "topics": [
            "0xa534c8dbe71f871f9f3530e97a74601fea17b426cae02e1c5aee42c96c784051",
            "0x000000000000000000000000f8fb3713d459d7c1018bd0a49d19b4c44290ebe5",
            "0x00000000000000000000000009c0126087ac47816516f049fe73ee3e8122a42c",
            "0x00000000000000000000000009c0126087ac47816516f049fe73ee3e8122a42c"
          ],
          "data": "0x00000000000000000000000000000000000000000000000029a2a45749023f5d0000000000000000000000000000000000000000000000000000000000000000",
          "blockHash": "0xee8239f4bfa8790c9f153ea86cb60c81fa93707ba95960a982d40eb053f4d5bc",
          "blockNumber": "0x499081",
          "transactionHash": "0xa17de7620e6bd4a881c51a0011565e11d3f6b2fa8ec45135b052aaee14ec9711",
          "transactionIndex": "0x5",
          "logIndex": "0x6",
          "removed": false
        }
      ],
      "status": "0x1",
      "logsBloom": "0x10020000000000000000000000000000000000000000000000000000000000800000000040000000000000000000000000050000402000020000000000200000000000000001000000000008000000000000000000000000000000000000200000000000020020000000000000000c00000000000000000008000010400000002000000001000000000000200000000000200000000000000000000000000000020000000000020000000000000000000000000000004000000000000000010000000002000000000000002000000000004000000000000000000000000020040010100000000000000000000000000000000000000820000000000000040000",
      "type": "0x2",
      "effectiveGasPrice": "0xb974ae06"
    }
  ],
  "libraries": [],
  "pending": [],
  "returns": {},
  "timestamp": 1701700097,
  "chain": 11155111,
  "multi": false,
  "commit": "7fb8683"
}