{
  "transactions": [
    {
      "hash": "0x6986e635a74bd74330171eeebf00e1b525686b49f77e2ce3effe7837ac75173c",
      "transactionType": "CALL",
      "contractName": "InitializableImmutableAdminUpgradeabilityProxy",
      "contractAddress": "0x6Ae43d3271ff6888e7Fc43Fd7321a503ff738951",
      "function": "borrow(address,uint256,uint256,uint16,address)",
      "arguments": [
        "0xf8Fb3713D459D7C1018BD0A49D19b4C44290EBE5",
        "18941778105",
        "2",
        "0",
        "0x09c0126087ac47816516F049fE73Ee3e8122A42c"
      ],
      "transaction": {
        "type": "0x02",
        "from": "0x09c0126087ac47816516f049fe73ee3e8122a42c",
        "to": "0x6ae43d3271ff6888e7fc43fd7321a503ff738951",
        "gas": "0x5eea3",
        "value": "0x0",
        "data": "0xa415bcad000000000000000000000000f8fb3713d459d7c1018bd0a49d19b4c44290ebe500000000000000000000000000000000000000000000000000000004690498b90000000000000000000000000000000000000000000000000000000000000002000000000000000000000000000000000000000000000000000000000000000000000000000000000000000009c0126087ac47816516f049fe73ee3e8122a42c",
        "nonce": "0xf5",
        "accessList": []
      },
      "additionalContracts": [],
      "isFixedGasLimit": false
    }
  ],
  "receipts": [
    {
      "transactionHash": "0x6986e635a74bd74330171eeebf00e1b525686b49f77e2ce3effe7837ac75173c",
      "transactionIndex": "0x1",
      "blockHash": "0x86b15bbd43345303a0a0b1099ad54c547d65cd8c9ccaa6c1f44923b34a1d835c",
      "blockNumber": "0x498ed0",
      "from": "0x09c0126087ac47816516F049fE73Ee3e8122A42c",
      "to": "0x6Ae43d3271ff6888e7Fc43Fd7321a503ff738951",
      "cumulativeGasUsed": "0xba985",
      "gasUsed": "0x44b78",
      "contractAddress": null,
      "logs": [
        {
          "address": "0x34a4d932E722b9dFb492B9D8131127690CE2430B",
          "topics": [
            "0xddf252ad1be2c89b69c2b068fc378daa952ba7f163c4a11628f55a4df523b3ef",
            "0x0000000000000000000000000000000000000000000000000000000000000000",
            "0x00000000000000000000000009c0126087ac47816516f049fe73ee3e8122a42c"
          ],
          "data": "0x00000000000000000000000000000000000000000000000000000015527e0264",
          "blockHash": "0x86b15bbd43345303a0a0b1099ad54c547d65cd8c9ccaa6c1f44923b34a1d835c",
          "blockNumber": "0x498ed0",
          "transactionHash": "0x6986e635a74bd74330171eeebf00e1b525686b49f77e2ce3effe7837ac75173c",
          "transactionIndex": "0x1",
          "logIndex": "0x1",
          "removed": false
        },
        {
          "address": "0x34a4d932E722b9dFb492B9D8131127690CE2430B",
          "topics": [
            "0x458f5fa412d0f69b08dd84872b0215675cc67bc1d5b6fd93300a1c3878b86196",
            "0x00000000000000000000000009c0126087ac47816516f049fe73ee3e8122a42c",
            "0x00000000000000000000000009c0126087ac47816516f049fe73ee3e8122a42c"
          ],
          "data": "0x00000000000000000000000000000000000000000000000000000015527e026400000000000000000000000000000000000000000000000000000010e97969ab0000000000000000000000000000000000000000048c724477a05a45dcad23a1",
          "blockHash": "0x86b15bbd43345303a0a0b1099ad54c547d65cd8c9ccaa6c1f44923b34a1d835c",
          "blockNumber": "0x498ed0",
          "transactionHash": "0x6986e635a74bd74330171eeebf00e1b525686b49f77e2ce3effe7837ac75173c",
          "transactionIndex": "0x1",
          "logIndex": "0x2",
          "removed": false
        },
        {
          "address": "0x6Ae43d3271ff6888e7Fc43Fd7321a503ff738951",
          "topics": [
            "0x804c9b842b2748a22bb64b345453a3de7ca54a6ca45ce00d415894979e22897a",
            "0x000000000000000000000000f8fb3713d459d7c1018bd0a49d19b4c44290ebe5"
          ],
          "data": "0x0000000000000000000000000000000000000000050fdbf2f6aeb4cfc3ad7dd6000000000000000000000000000000000000000007ade9f1c35faa3645ee4a2a0000000000000000000000000000000000000000076377b3fcab9eababee4a2a00000000000000000000000000000000000000000426fae0bb06eaa5897d7afe0000000000000000000000000000000000000000048c724477a05a45dcad23a1",
          "blockHash": "0x86b15bbd43345303a0a0b1099ad54c547d65cd8c9ccaa6c1f44923b34a1d835c",
          "blockNumber": "0x498ed0",
          "transactionHash": "0x6986e635a74bd74330171eeebf00e1b525686b49f77e2ce3effe7837ac75173c",
          "transactionIndex": "0x1",
          "logIndex": "0x3",
          "removed": false
        },
        {
          "address": "0xf8Fb3713D459D7C1018BD0A49D19b4C44290EBE5",
          "topics": [
            "0xddf252ad1be2c89b69c2b068fc378daa952ba7f163c4a11628f55a4df523b3ef",
            "0x0000000000000000000000003ffaf50d4f4e96eb78f2407c090b72e86ecaed24",
            "0x00000000000000000000000009c0126087ac47816516f049fe73ee3e8122a42c"
          ],
          "data": "0x00000000000000000000000000000000000000000000000000000004690498b9",
          "blockHash": "0x86b15bbd43345303a0a0b1099ad54c547d65cd8c9ccaa6c1f44923b34a1d835c",
          "blockNumber": "0x498ed0",
          "transactionHash": "0x6986e635a74bd74330171eeebf00e1b525686b49f77e2ce3effe7837ac75173c",
          "transactionIndex": "0x1",
          "logIndex": "0x4",
          "removed": false
        },
        {
          "address": "0x6Ae43d3271ff6888e7Fc43Fd7321a503ff738951",
          "topics": [
            "0xb3d084820fb1a9decffb176436bd02558d15fac9b0ddfed8c465bc7359d7dce0",
            "0x000000000000000000000000f8fb3713d459d7c1018bd0a49d19b4c44290ebe5",
            "0x00000000000000000000000009c0126087ac47816516f049fe73ee3e8122a42c",
            "0x0000000000000000000000000000000000000000000000000000000000000000"
          ],
          "data": "0x00000000000000000000000009c0126087ac47816516f049fe73ee3e8122a42c00000000000000000000000000000000000000000000000000000004690498b900000000000000000000000000000000000000000000000000000000000000020000000000000000000000000000000000000000076377b3fcab9eababee4a2a",
          "blockHash": "0x86b15bbd43345303a0a0b1099ad54c547d65cd8c9ccaa6c1f44923b34a1d835c",
          "blockNumber": "0x498ed0",
          "transactionHash": "0x6986e635a74bd74330171eeebf00e1b525686b49f77e2ce3effe7837ac75173c",
          "transactionIndex": "0x1",
          "logIndex": "0x5",
          "removed": false
        }
      ],
      "status": "0x1",
      "logsBloom": "0x00020000000000000000000000000000000000000000000000000000000000800000000040000000000000000004000000000000002000020000000000000000000000000001000000000008000000000000000000000000000000040000000000000000020020000000000000000c00000000000000000008000010400000000000000001000000000000200000000000200000000000000000000000000000000000000000020000000000000000000000000000004000000000000000010002000002000001000000002000000000004000000000040000000000000020000000000000000000000000000001000000000000000820000000000000000000",
      "type": "0x2",
      "effectiveGasPrice": "0xb91c7565"
    }
  ],
  "libraries": [],
  "pending": [],
  "returns": {},
  "timestamp": 1701694405,
  "chain": 11155111,
  "multi": false,
  "commit": "850785a"
}