{
  "transactions": [
    {
      "hash": "0xb4f3dabb55cf4163c1bd1a2793bbb346e030a1362c19e0871781c5a5851a9eaa",
      "transactionType": "CALL",
      "contractName": "AToken",
      "contractAddress": "0x48424f2779be0f03cDF6F02E17A591A9BF7AF89f",
      "function": "approve(address,uint256)",
      "arguments": [
        "0x6Ae43d3271ff6888e7Fc43Fd7321a503ff738951",
        "10000000000000000"
      ],
      "transaction": {
        "type": "0x02",
        "from": "0x09c0126087ac47816516f049fe73ee3e8122a42c",
        "to": "0x48424f2779be0f03cdf6f02e17a591a9bf7af89f",
        "gas": "0x8dd1",
        "value": "0x0",
        "data": "0x095ea7b30000000000000000000000006ae43d3271ff6888e7fc43fd7321a503ff738951000000000000000000000000000000000000000000000000002386f26fc10000",
        "nonce": "0xdb",
        "accessList": []
      },
      "additionalContracts": [],
      "isFixedGasLimit": false
    },
    {
      "hash": "0x8d024c57c68d7de509501b3aa0f3a647d0ce172aaec7ecbb769bf59396a96829",
      "transactionType": "CALL",
      "contractName": null,
      "contractAddress": "0x387d311e47e80b498169e6fb51d3193167d89F7D",
      "function": null,
      "arguments": null,
      "transaction": {
        "type": "0x02",
        "from": "0x09c0126087ac47816516f049fe73ee3e8122a42c",
        "to": "0x387d311e47e80b498169e6fb51d3193167d89f7d",
        "gas": "0x35c11",
        "value": "0x2386f26fc10000",
        "data": "0x474cf53d0000000000000000000000006ae43d3271ff6888e7fc43fd7321a503ff73895100000000000000000000000009c0126087ac47816516f049fe73ee3e8122a42c0000000000000000000000000000000000000000000000000000000000000000",
        "nonce": "0xdc",
        "accessList": []
      },
      "additionalContracts": [],
      "isFixedGasLimit": false
    }
  ],
  "receipts": [
    {
      "transactionHash": "0xb4f3dabb55cf4163c1bd1a2793bbb346e030a1362c19e0871781c5a5851a9eaa",
      "transactionIndex": "0x3",
      "blockHash": "0xdde6aae936bd3669efed638b62d4318b9c638c96c12dd3263d494cec333f9325",
      "blockNumber": "0x492e03",
      "from": "0x09c0126087ac47816516F049fE73Ee3e8122A42c",
      "to": "0x48424f2779be0f03cDF6F02E17A591A9BF7AF89f",
      "cumulativeGasUsed": "0x21856b",
      "gasUsed": "0x66ad",
      "contractAddress": null,
      "logs": [
        {
          "address": "0x48424f2779be0f03cDF6F02E17A591A9BF7AF89f",
          "topics": [
            "0x8c5be1e5ebec7d5bd14f71427d1e84f3dd0314c0f7b2291e5b200ac8c7c3b925",
            "0x00000000000000000000000009c0126087ac47816516f049fe73ee3e8122a42c",
            "0x0000000000000000000000006ae43d3271ff6888e7fc43fd7321a503ff738951"
          ],
          "data": "0x000000000000000000000000000000000000000000000000002386f26fc10000",
          "blockHash": "0xdde6aae936bd3669efed638b62d4318b9c638c96c12dd3263d494cec333f9325",
          "blockNumber": "0x492e03",
          "transactionHash": "0xb4f3dabb55cf4163c1bd1a2793bbb346e030a1362c19e0871781c5a5851a9eaa",
          "transactionIndex": "0x3",
          "logIndex": "0x2",
          "removed": false
        }
      ],
      "status": "0x1",
      "logsBloom": "0x00000000000000000000000000000000000000080000000000000000200000000000000000000000000000000000000000040000000000000000000000200000000000000000000000000000000000000000000000000000000000000000200000000000000000000000000000000000000000000000000000000000000000002000000000000000000000200000000000000000000000000000000000000000020000000000000000000000000000000000000000004000000000000000000000000000000000000000000000000000000000000000000000000000000000000010000400000000000000000000000000000000000020000000000000000000",
      "type": "0x2",
      "effectiveGasPrice": "0xbf821a91"
    },
    {
      "transactionHash": "0x8d024c57c68d7de509501b3aa0f3a647d0ce172aaec7ecbb769bf59396a96829",
      "transactionIndex": "0x4",
      "blockHash": "0xdde6aae936bd3669efed638b62d4318b9c638c96c12dd3263d494cec333f9325",
      "blockNumber": "0x492e03",
      "from": "0x09c0126087ac47816516F049fE73Ee3e8122A42c",
      "to": "0x387d311e47e80b498169e6fb51d3193167d89F7D",
      "cumulativeGasUsed": "0x23f418",
      "gasUsed": "0x26ead",
      "contractAddress": null,
      "logs": [
        {
          "address": "0xC558DBdd856501FCd9aaF1E62eae57A9F0629a3c",
          "topics": [
            "0xe1fffcc4923d04b559f4d29a8bfc6cda04eb5b0d3c460751c2402c5c5cc9109c",
            "0x000000000000000000000000387d311e47e80b498169e6fb51d3193167d89f7d"
          ],
          "data": "0x000000000000000000000000000000000000000000000000002386f26fc10000",
          "blockHash": "0xdde6aae936bd3669efed638b62d4318b9c638c96c12dd3263d494cec333f9325",
          "blockNumber": "0x492e03",
          "transactionHash": "0x8d024c57c68d7de509501b3aa0f3a647d0ce172aaec7ecbb769bf59396a96829",
          "transactionIndex": "0x4",
          "logIndex": "0x3",
          "removed": false
        },
        {
          "address": "0x6Ae43d3271ff6888e7Fc43Fd7321a503ff738951",
          "topics": [
            "0x804c9b842b2748a22bb64b345453a3de7ca54a6ca45ce00d415894979e22897a",
            "0x000000000000000000000000c558dbdd856501fcd9aaf1e62eae57a9f0629a3c"
          ],
          "data": "0x00000000000000000000000000000000000000000000000000000000000000000000000000000000000000000000000000000000004a723dc6b40b8a9a00000000000000000000000000000000000000000000000000000000000000000000000000000000000000000000000000000000000000033b3046872e2fe1c4b3967f0000000000000000000000000000000000000000033b2e3c9fd0803ce8000000",
          "blockHash": "0xdde6aae936bd3669efed638b62d4318b9c638c96c12dd3263d494cec333f9325",
          "blockNumber": "0x492e03",
          "transactionHash": "0x8d024c57c68d7de509501b3aa0f3a647d0ce172aaec7ecbb769bf59396a96829",
          "transactionIndex": "0x4",
          "logIndex": "0x4",
          "removed": false
        },
        {
          "address": "0xC558DBdd856501FCd9aaF1E62eae57A9F0629a3c",
          "topics": [
            "0xddf252ad1be2c89b69c2b068fc378daa952ba7f163c4a11628f55a4df523b3ef",
            "0x000000000000000000000000387d311e47e80b498169e6fb51d3193167d89f7d",
            "0x0000000000000000000000005b071b590a59395fe4025a0ccc1fcc931aac1830"
          ],
          "data": "0x000000000000000000000000000000000000000000000000002386f26fc10000",
          "blockHash": "0xdde6aae936bd3669efed638b62d4318b9c638c96c12dd3263d494cec333f9325",
          "blockNumber": "0x492e03",
          "transactionHash": "0x8d024c57c68d7de509501b3aa0f3a647d0ce172aaec7ecbb769bf59396a96829",
          "transactionIndex": "0x4",
          "logIndex": "0x5",
          "removed": false
        },
        {
          "address": "0x5b071b590a59395fE4025A0Ccc1FcC931AAc1830",
          "topics": [
            "0xddf252ad1be2c89b69c2b068fc378daa952ba7f163c4a11628f55a4df523b3ef",
            "0x0000000000000000000000000000000000000000000000000000000000000000",
            "0x00000000000000000000000009c0126087ac47816516f049fe73ee3e8122a42c"
          ],
          "data": "0x000000000000000000000000000000000000000000000000002386f26fc10000",
          "blockHash": "0xdde6aae936bd3669efed638b62d4318b9c638c96c12dd3263d494cec333f9325",
          "blockNumber": "0x492e03",
          "transactionHash": "0x8d024c57c68d7de509501b3aa0f3a647d0ce172aaec7ecbb769bf59396a96829",
          "transactionIndex": "0x4",
          "logIndex": "0x6",
          "removed": false
        },
        {
          "address": "0x5b071b590a59395fE4025A0Ccc1FcC931AAc1830",
          "topics": [
            "0x458f5fa412d0f69b08dd84872b0215675cc67bc1d5b6fd93300a1c3878b86196",
            "0x000000000000000000000000387d311e47e80b498169e6fb51d3193167d89f7d",
            "0x00000000000000000000000009c0126087ac47816516f049fe73ee3e8122a42c"
          ],
          "data": "0x000000000000000000000000000000000000000000000000002386f26fc1000000000000000000000000000000000000000000000000000000000000000000000000000000000000000000000000000000000000033b3046872e2fe1c4b3967f",
          "blockHash": "0xdde6aae936bd3669efed638b62d4318b9c638c96c12dd3263d494cec333f9325",
          "blockNumber": "0x492e03",
          "transactionHash": "0x8d024c57c68d7de509501b3aa0f3a647d0ce172aaec7ecbb769bf59396a96829",
          "transactionIndex": "0x4",
          "logIndex": "0x7",
          "removed": false
        },
        {
          "address": "0x6Ae43d3271ff6888e7Fc43Fd7321a503ff738951",
          "topics": [
            "0x2b627736bca15cd5381dcf80b0bf11fd197d01a037c52b927a881a10fb73ba61",
            "0x000000000000000000000000c558dbdd856501fcd9aaf1e62eae57a9f0629a3c",
            "0x00000000000000000000000009c0126087ac47816516f049fe73ee3e8122a42c",
            "0x0000000000000000000000000000000000000000000000000000000000000000"
          ],
          "data": "0x000000000000000000000000387d311e47e80b498169e6fb51d3193167d89f7d000000000000000000000000000000000000000000000000002386f26fc10000",
          "blockHash": "0xdde6aae936bd3669efed638b62d4318b9c638c96c12dd3263d494cec333f9325",
          "blockNumber": "0x492e03",
          "transactionHash": "0x8d024c57c68d7de509501b3aa0f3a647d0ce172aaec7ecbb769bf59396a96829",
          "transactionIndex": "0x4",
          "logIndex": "0x8",
          "removed": false
        }
      ],
      "status": "0x1",
      "logsBloom": "0x0000000000004000080000000000000000000000100000000000000000000000000000000000000000000000000c000000000000002000000100000000000000000000000000000000400008000000000000000000000000000000048000000000000000020000000000000000000800000000002000000000000110000000000000000001020000000000200000000000200001000000002000000000000000000000000000004000000000000000000000000000004000000800000000010002000002000000000000002040000000000000000000000000000000000020400000000800000000000000000000000040000000000020400000401000000000",
      "type": "0x2",
      "effectiveGasPrice": "0xbf821a91"
    }
  ],
  "libraries": [],
  "pending": [],
  "returns": {},
  "timestamp": 1701356306,
  "chain": 11155111,
  "multi": false,
  "commit": "b9496e1"
}