{
  "transactions": [
    {
      "hash": "0xb7280221b3da3a26955e62ac23d1ce92e8b64597cb92ea5fa7268c51effea31f",
      "transactionType": "CALL",
      "contractName": "LinkToken",
      "contractAddress": "0x779877A7B0D9E8603169DdbD7836e478b4624789",
      "function": "approve(address,uint256)",
      "arguments": [
        "0x6Ae43d3271ff6888e7Fc43Fd7321a503ff738951",
        "10000000000000000"
      ],
      "transaction": {
        "type": "0x02",
        "from": "0x09c0126087ac47816516f049fe73ee3e8122a42c",
        "to": "0x779877a7b0d9e8603169ddbd7836e478b4624789",
        "gas": "0x8df2",
        "value": "0x0",
        "data": "0x095ea7b30000000000000000000000006ae43d3271ff6888e7fc43fd7321a503ff738951000000000000000000000000000000000000000000000000002386f26fc10000",
        "nonce": "0xeb",
        "accessList": []
      },
      "additionalContracts": [],
      "isFixedGasLimit": false
    }
  ],
  "receipts": [
    {
      "transactionHash": "0xb7280221b3da3a26955e62ac23d1ce92e8b64597cb92ea5fa7268c51effea31f",
      "transactionIndex": "0x43",
      "blockHash": "0x5cdda4d0846eeb10a5730c7d8674b742bbd61ed573758210c08306bc364ba5cf",
      "blockNumber": "0x494685",
      "from": "0x09c0126087ac47816516F049fE73Ee3e8122A42c",
      "to": "0x779877A7B0D9E8603169DdbD7836e478b4624789",
      "cumulativeGasUsed": "0x29fcee",
      "gasUsed": "0x66c5",
      "contractAddress": null,
      "logs": [
        {
          "address": "0x779877A7B0D9E8603169DdbD7836e478b4624789",
          "topics": [
            "0x8c5be1e5ebec7d5bd14f71427d1e84f3dd0314c0f7b2291e5b200ac8c7c3b925",
            "0x00000000000000000000000009c0126087ac47816516f049fe73ee3e8122a42c",
            "0x0000000000000000000000006ae43d3271ff6888e7fc43fd7321a503ff738951"
          ],
          "data": "0x000000000000000000000000000000000000000000000000002386f26fc10000",
          "blockHash": "0x5cdda4d0846eeb10a5730c7d8674b742bbd61ed573758210c08306bc364ba5cf",
          "blockNumber": "0x494685",
          "transactionHash": "0xb7280221b3da3a26955e62ac23d1ce92e8b64597cb92ea5fa7268c51effea31f",
          "transactionIndex": "0x43",
          "logIndex": "0x13",
          "removed": false
        }
      ],
      "status": "0x1",
      "logsBloom": "0x00000004000000000000000000000000000000000000000000000000000000000000000000000000000000000000000000040000000000000000000000200000000000000000000000000000000000000000000000000000000000000000200000000000000000000000000000000000000000000000000000000000000000002000000000000000000000200000800000000000000000000000000000000000020000000000000000000000000000000000000000004000000000000000000000000000000000000000000000000000000000000000000100000000000000000010000000000000000000000000000000000000000020000000000000000000",
      "type": "0x2",
      "effectiveGasPrice": "0xbf45576c"
    }
  ],
  "libraries": [],
  "pending": [],
  "returns": {},
  "timestamp": 1701441230,
  "chain": 11155111,
  "multi": false,
  "commit": "fd61391"
}