{
  "transactions": [
    {
      "hash": "0x8d94331ee392691eebe02c6ae150458ee146ff38e3087b2ce7a17be22715db55",
      "transactionType": "CALL",
      "contractName": "InitializableImmutableAdminUpgradeabilityProxy",
      "contractAddress": "0x6Ae43d3271ff6888e7Fc43Fd7321a503ff738951",
      "function": "borrow(address,uint256,uint256,uint16,address)",
      "arguments": [
        "0xf8Fb3713D459D7C1018BD0A49D19b4C44290EBE5",
        "18941822903",
        "2",
        "0",
        "0x09c0126087ac47816516F049fE73Ee3e8122A42c"
      ],
      "transaction": {
        "type": "0x02",
        "from": "0x09c0126087ac47816516f049fe73ee3e8122a42c",
        "to": "0x6ae43d3271ff6888e7fc43fd7321a503ff738951",
        "gas": "0x5eea3",
        "value": "0x0",
        "data": "0xa415bcad000000000000000000000000f8fb3713d459d7c1018bd0a49d19b4c44290ebe500000000000000000000000000000000000000000000000000000004690547b70000000000000000000000000000000000000000000000000000000000000002000000000000000000000000000000000000000000000000000000000000000000000000000000000000000009c0126087ac47816516f049fe73ee3e8122a42c",
        "nonce": "0xf6",
        "accessList": []
      },
      "additionalContracts": [],
      "isFixedGasLimit": false
    }
  ],
  "receipts": [
    {
      "transactionHash": "0x8d94331ee392691eebe02c6ae150458ee146ff38e3087b2ce7a17be22715db55",
      "transactionIndex": "0xd",
      "blockHash": "0xf5743ab5ce0be5a090ace258852ba8b0e714f13ffd207b137f46c01464f4dd5b",
      "blockNumber": "0x498ed6",
      "from": "0x09c0126087ac47816516F049fE73Ee3e8122A42c",
      "to": "0x6Ae43d3271ff6888e7Fc43Fd7321a503ff738951",
      "cumulativeGasUsed": "0x875e0",
      "gasUsed": "0x44b78",
      "contractAddress": null,
      "logs": [
        {
          "address": "0x34a4d932E722b9dFb492B9D8131127690CE2430B",
          "topics": [
            "0xddf252ad1be2c89b69c2b068fc378daa952ba7f163c4a11628f55a4df523b3ef",
            "0x0000000000000000000000000000000000000000000000000000000000000000",
            "0x00000000000000000000000009c0126087ac47816516f049fe73ee3e8122a42c"
          ],
          "data": "0x0000000000000000000000000000000000000000000000000000000469de6f6d",
          "blockHash": "0xf5743ab5ce0be5a090ace258852ba8b0e714f13ffd207b137f46c01464f4dd5b",
          "blockNumber": "0x498ed6",
          "transactionHash": "0x8d94331ee392691eebe02c6ae150458ee146ff38e3087b2ce7a17be22715db55",
          "transactionIndex": "0xd",
          "logIndex": "0x0",
          "removed": false
        },
        {
          "address": "0x34a4d932E722b9dFb492B9D8131127690CE2430B",
          "topics": [
            "0x458f5fa412d0f69b08dd84872b0215675cc67bc1d5b6fd93300a1c3878b86196",
            "0x00000000000000000000000009c0126087ac47816516f049fe73ee3e8122a42c",
            "0x00000000000000000000000009c0126087ac47816516f049fe73ee3e8122a42c"
          ],
          "data": "0x0000000000000000000000000000000000000000000000000000000469de6f6d0000000000000000000000000000000000000000000000000000000000d927b60000000000000000000000000000000000000000048c7457acb6eb4b34c02af9",
          "blockHash": "0xf5743ab5ce0be5a090ace258852ba8b0e714f13ffd207b137f46c01464f4dd5b",
          "blockNumber": "0x498ed6",
          "transactionHash": "0x8d94331ee392691eebe02c6ae150458ee146ff38e3087b2ce7a17be22715db55",
          "transactionIndex": "0xd",
          "logIndex": "0x1",
          "removed": false
        },
        {
          "address": "0x6Ae43d3271ff6888e7Fc43Fd7321a503ff738951",
          "topics": [
            "0x804c9b842b2748a22bb64b345453a3de7ca54a6ca45ce00d415894979e22897a",
            "0x000000000000000000000000f8fb3713d459d7c1018bd0a49d19b4c44290ebe5"
          ],
          "data": "0x0000000000000000000000000000000000000000050fdcf54b5f0711cf7c2b52000000000000000000000000000000000000000007adeaeee8a916550575b7360000000000000000000000000000000000000000076378b121f50aca6b75b73600000000000000000000000000000000000000000426fc2cf39bb96097fe93e10000000000000000000000000000000000000000048c7457acb6eb4b34c02af9",
          "blockHash": "0xf5743ab5ce0be5a090ace258852ba8b0e714f13ffd207b137f46c01464f4dd5b",
          "blockNumber": "0x498ed6",
          "transactionHash": "0x8d94331ee392691eebe02c6ae150458ee146ff38e3087b2ce7a17be22715db55",
          "transactionIndex": "0xd",
          "logIndex": "0x2",
          "removed": false
        },
        {
          "address": "0xf8Fb3713D459D7C1018BD0A49D19b4C44290EBE5",
          "topics": [
            "0xddf252ad1be2c89b69c2b068fc378daa952ba7f163c4a11628f55a4df523b3ef",
            "0x0000000000000000000000003ffaf50d4f4e96eb78f2407c090b72e86ecaed24",
            "0x00000000000000000000000009c0126087ac47816516f049fe73ee3e8122a42c"
          ],
          "data": "0x00000000000000000000000000000000000000000000000000000004690547b7",
          "blockHash": "0xf5743ab5ce0be5a090ace258852ba8b0e714f13ffd207b137f46c01464f4dd5b",
          "blockNumber": "0x498ed6",
          "transactionHash": "0x8d94331ee392691eebe02c6ae150458ee146ff38e3087b2ce7a17be22715db55",
          "transactionIndex": "0xd",
          "logIndex": "0x3",
          "removed": false
        },
        {
          "address": "0x6Ae43d3271ff6888e7Fc43Fd7321a503ff738951",
          "topics": [
            "0xb3d084820fb1a9decffb176436bd02558d15fac9b0ddfed8c465bc7359d7dce0",
            "0x000000000000000000000000f8fb3713d459d7c1018bd0a49d19b4c44290ebe5",
            "0x00000000000000000000000009c0126087ac47816516f049fe73ee3e8122a42c",
            "0x0000000000000000000000000000000000000000000000000000000000000000"
          ],
          "data": "0x00000000000000000000000009c0126087ac47816516f049fe73ee3e8122a42c00000000000000000000000000000000000000000000000000000004690547b700000000000000000000000000000000000000000000000000000000000000020000000000000000000000000000000000000000076378b121f50aca6b75b736",
          "blockHash": "0xf5743ab5ce0be5a090ace258852ba8b0e714f13ffd207b137f46c01464f4dd5b",
          "blockNumber": "0x498ed6",
          "transactionHash": "0x8d94331ee392691eebe02c6ae150458ee146ff38e3087b2ce7a17be22715db55",
          "transactionIndex": "0xd",
          "logIndex": "0x4",
          "removed": false
        }
      ],
      "status": "0x1",
      "logsBloom": "0x00020000000000000000000000000000000000000000000000000000000000800000000040000000000000000004000000000000002000020000000000000000000000000001000000000008000000000000000000000000000000040000000000000000020020000000000000000c00000000000000000008000010400000000000000001000000000000200000000000200000000000000000000000000000000000000000020000000000000000000000000000004000000000000000010002000002000001000000002000000000004000000000040000000000000020000000000000000000000000000001000000000000000820000000000000000000",
      "type": "0x2",
      "effectiveGasPrice": "0xb8fdc86a"
    }
  ],
  "libraries": [],
  "pending": [],
  "returns": {},
  "timestamp": 1701694502,
  "chain": 11155111,
  "multi": false,
  "commit": "850785a"
}