{
  "transactions": [
    {
      "hash": "0x0e6c5aff16be2a00290ed352f3ec0596182412f50cdf514defbfe3f5448aec86",
      "transactionType": "CALL",
      "contractName": "TestnetERC20",
      "contractAddress": "0xf8Fb3713D459D7C1018BD0A49D19b4C44290EBE5",
      "function": "approve(address,uint256)",
      "arguments": [
        "0x6Ae43d3271ff6888e7Fc43Fd7321a503ff738951",
        "122"
      ],
      "transaction": {
        "type": "0x02",
        "from": "0x09c0126087ac47816516f049fe73ee3e8122a42c",
        "to": "0xf8fb3713d459d7c1018bd0a49d19b4c44290ebe5",
        "gas": "0xf938",
        "value": "0x0",
        "data": "0x095ea7b30000000000000000000000006ae43d3271ff6888e7fc43fd7321a503ff738951000000000000000000000000000000000000000000000000000000000000007a",
        "nonce": "0xfd",
        "accessList": []
      },
      "additionalContracts": [],
      "isFixedGasLimit": false
    },
    {
      "hash": "0x45b0f32c95e1468f40d7de0e038b7023b768d91d8b0c81a354d8a90b8f201059",
      "transactionType": "CALL",
      "contractName": "InitializableImmutableAdminUpgradeabilityProxy",
      "contractAddress": "0x6Ae43d3271ff6888e7Fc43Fd7321a503ff738951",
      "function": "repay(address,uint256,uint256,address)",
      "arguments": [
        "0xf8Fb3713D459D7C1018BD0A49D19b4C44290EBE5",
        "122",
        "2",
        "0x09c0126087ac47816516F049fE73Ee3e8122A42c"
      ],
      "transaction": {
        "type": "0x02",
        "from": "0x09c0126087ac47816516f049fe73ee3e8122a42c",
        "to": "0x6ae43d3271ff6888e7fc43fd7321a503ff738951",
        "gas": "0x3b8ab",
        "value": "0x0",
        "data": "0x573ade81000000000000000000000000f8fb3713d459d7c1018bd0a49d19b4c44290ebe5000000000000000000000000000000000000000000000000000000000000007a000000000000000000000000000000000000000000000000000000000000000200000000000000000000000009c0126087ac47816516f049fe73ee3e8122a42c",
        "nonce": "0xfe",
        "accessList": []
      },
      "additionalContracts": [],
      "isFixedGasLimit": false
    }
  ],
  "receipts": [
    {
      "transactionHash": "0x0e6c5aff16be2a00290ed352f3ec0596182412f50cdf514defbfe3f5448aec86",
      "transactionIndex": "0x8",
      "blockHash": "0x4868fe98133566769aa8f600e6e4800f3f8079a3c139cdbed9141256577f992e",
      "blockNumber": "0x498ffd",
      "from": "0x09c0126087ac47816516F049fE73Ee3e8122A42c",
      "to": "0xf8Fb3713D459D7C1018BD0A49D19b4C44290EBE5",
      "cumulativeGasUsed": "0xd49a7",
      "gasUsed": "0xb46f",
      "contractAddress": null,
      "logs": [
        {
          "address": "0xf8Fb3713D459D7C1018BD0A49D19b4C44290EBE5",
          "topics": [
            "0x8c5be1e5ebec7d5bd14f71427d1e84f3dd0314c0f7b2291e5b200ac8c7c3b925",
            "0x00000000000000000000000009c0126087ac47816516f049fe73ee3e8122a42c",
            "0x0000000000000000000000006ae43d3271ff6888e7fc43fd7321a503ff738951"
          ],
          "data": "0x000000000000000000000000000000000000000000000000000000000000007a",
          "blockHash": "0x4868fe98133566769aa8f600e6e4800f3f8079a3c139cdbed9141256577f992e",
          "blockNumber": "0x498ffd",
          "transactionHash": "0x0e6c5aff16be2a00290ed352f3ec0596182412f50cdf514defbfe3f5448aec86",
          "transactionIndex": "0x8",
          "logIndex": "0xc",
          "removed": false
        }
      ],
      "status": "0x1",
      "logsBloom": "0x00000000000000000000000000000000000000000000000000000000000000800000000000000000000000000000000000040000000000020000000000200000000000000000000000000000000000000000000000000000000000000000200000000000000000000000000000000400000000000000000000000000000000002000000000000000000000200000000000000000000000000000000000000000020000000000000000000000000000000000000000004000000000000000000000000000000000000000000000000000000000000000000000000000000000000010000000000000000000000000000000000000000020000000000000000000",
      "type": "0x2",
      "effectiveGasPrice": "0xb94c1037"
    },
    {
      "transactionHash": "0x45b0f32c95e1468f40d7de0e038b7023b768d91d8b0c81a354d8a90b8f201059",
      "transactionIndex": "0x18",
      "blockHash": "0x4868fe98133566769aa8f600e6e4800f3f8079a3c139cdbed9141256577f992e",
      "blockNumber": "0x498ffd",
      "from": "0x09c0126087ac47816516F049fE73Ee3e8122A42c",
      "to": "0x6Ae43d3271ff6888e7Fc43Fd7321a503ff738951",
      "cumulativeGasUsed": "0x29cff2",
      "gasUsed": "0x2b1b8",
      "contractAddress": null,
      "logs": [
        {
          "address": "0x34a4d932E722b9dFb492B9D8131127690CE2430B",
          "topics": [
            "0xddf252ad1be2c89b69c2b068fc378daa952ba7f163c4a11628f55a4df523b3ef",
            "0x0000000000000000000000000000000000000000000000000000000000000000",
            "0x00000000000000000000000009c0126087ac47816516f049fe73ee3e8122a42c"
          ],
          "data": "0x0000000000000000000000000000000000000000000000000000000000038506",
          "blockHash": "0x4868fe98133566769aa8f600e6e4800f3f8079a3c139cdbed9141256577f992e",
          "blockNumber": "0x498ffd",
          "transactionHash": "0x45b0f32c95e1468f40d7de0e038b7023b768d91d8b0c81a354d8a90b8f201059",
          "transactionIndex": "0x18",
          "logIndex": "0x25",
          "removed": false
        },
        {
          "address": "0x34a4d932E722b9dFb492B9D8131127690CE2430B",
          "topics": [
            "0x458f5fa412d0f69b08dd84872b0215675cc67bc1d5b6fd93300a1c3878b86196",
            "0x00000000000000000000000009c0126087ac47816516f049fe73ee3e8122a42c",
            "0x00000000000000000000000009c0126087ac47816516f049fe73ee3e8122a42c"
          ],
          "data": "0x000000000000000000000000000000000000000000000000000000000003850600000000000000000000000000000000000000000000000000000000000385800000000000000000000000000000000000000000048cc75b7c1afdf89617d34c",
          "blockHash": "0x4868fe98133566769aa8f600e6e4800f3f8079a3c139cdbed9141256577f992e",
          "blockNumber": "0x498ffd",
          "transactionHash": "0x45b0f32c95e1468f40d7de0e038b7023b768d91d8b0c81a354d8a90b8f201059",
          "transactionIndex": "0x18",
          "logIndex": "0x26",
          "removed": false
        },
        {
          "address": "0x6Ae43d3271ff6888e7Fc43Fd7321a503ff738951",
          "topics": [
            "0x804c9b842b2748a22bb64b345453a3de7ca54a6ca45ce00d415894979e22897a",
            "0x000000000000000000000000f8fb3713d459d7c1018bd0a49d19b4c44290ebe5"
          ],
          "data": "0x000000000000000000000000000000000000000005100551fe5afdde2d542a0a000000000000000000000000000000000000000007ae127beefd48270452a0c100000000000000000000000000000000000000000763a03e28493c9c6a52a0c1000000000000000000000000000000000000000004273016f26a7fc8c368ff490000000000000000000000000000000000000000048cc75b7c1afdf89617d34c",
          "blockHash": "0x4868fe98133566769aa8f600e6e4800f3f8079a3c139cdbed9141256577f992e",
          "blockNumber": "0x498ffd",
          "transactionHash": "0x45b0f32c95e1468f40d7de0e038b7023b768d91d8b0c81a354d8a90b8f201059",
          "transactionIndex": "0x18",
          "logIndex": "0x27",
          "removed": false
        },
        {
          "address": "0xf8Fb3713D459D7C1018BD0A49D19b4C44290EBE5",
          "topics": [
            "0xddf252ad1be2c89b69c2b068fc378daa952ba7f163c4a11628f55a4df523b3ef",
            "0x00000000000000000000000009c0126087ac47816516f049fe73ee3e8122a42c",
            "0x0000000000000000000000003ffaf50d4f4e96eb78f2407c090b72e86ecaed24"
          ],
          "data": "0x000000000000000000000000000000000000000000000000000000000000007a",
          "blockHash": "0x4868fe98133566769aa8f600e6e4800f3f8079a3c139cdbed9141256577f992e",
          "blockNumber": "0x498ffd",
          "transactionHash": "0x45b0f32c95e1468f40d7de0e038b7023b768d91d8b0c81a354d8a90b8f201059",
          "transactionIndex": "0x18",
          "logIndex": "0x28",
          "removed": false
        },
        {
          "address": "0xf8Fb3713D459D7C1018BD0A49D19b4C44290EBE5",
          "topics": [
            "0x8c5be1e5ebec7d5bd14f71427d1e84f3dd0314c0f7b2291e5b200ac8c7c3b925",
            "0x00000000000000000000000009c0126087ac47816516f049fe73ee3e8122a42c",
            "0x0000000000000000000000006ae43d3271ff6888e7fc43fd7321a503ff738951"
          ],
          "data": "0x0000000000000000000000000000000000000000000000000000000000000000",
          "blockHash": "0x4868fe98133566769aa8f600e6e4800f3f8079a3c139cdbed9141256577f992e",
          "blockNumber": "0x498ffd",
          "transactionHash": "0x45b0f32c95e1468f40d7de0e038b7023b768d91d8b0c81a354d8a90b8f201059",
          "transactionIndex": "0x18",
          "logIndex": "0x29",
          "removed": false
        },
        {
          "address": "0x6Ae43d3271ff6888e7Fc43Fd7321a503ff738951",
          "topics": [
            "0xa534c8dbe71f871f9f3530e97a74601fea17b426cae02e1c5aee42c96c784051",
            "0x000000000000000000000000f8fb3713d459d7c1018bd0a49d19b4c44290ebe5",
            "0x00000000000000000000000009c0126087ac47816516f049fe73ee3e8122a42c",
            "0x00000000000000000000000009c0126087ac47816516f049fe73ee3e8122a42c"
          ],
          "data": "0x000000000000000000000000000000000000000000000000000000000000007a0000000000000000000000000000000000000000000000000000000000000000",
          "blockHash": "0x4868fe98133566769aa8f600e6e4800f3f8079a3c139cdbed9141256577f992e",
          "blockNumber": "0x498ffd",
          "transactionHash": "0x45b0f32c95e1468f40d7de0e038b7023b768d91d8b0c81a354d8a90b8f201059",
          "transactionIndex": "0x18",
          "logIndex": "0x2a",
          "removed": false
        }
      ],
      "status": "0x1",
      "logsBloom": "0x00020000000000000000000000000000000000000000000000000000000000800000000040000000000000000004000000040000402000020000000000200000000000000001000000000008000000000000000000000000000000040000200000000000020020000000000000000c00000000000000000008000010400000002000000001000000000000200000000000200000000000000000000000000000020000000000020000000000000000000000000000004000000000000000010002000002000000000000002000000000004000000000000000000000000020000010100000000000000000000000000000000000000820000000000000040000",
      "type": "0x2",
      "effectiveGasPrice": "0xb94c1037"
    }
  ],
  "libraries": [],
  "pending": [],
  "returns": {},
  "timestamp": 1701698345,
  "chain": 11155111,
  "multi": false,
  "commit": "7fb8683"
}