{
  "transactions": [
    {
      "hash": "0x0e6c5aff16be2a00290ed352f3ec0596182412f50cdf514defbfe3f5448aec86",
      "transactionType": "CALL",
      "contractName": "TestnetERC20",
      "contractAddress": "0xf8Fb3713D459D7C1018BD0A49D19b4C44290EBE5",
      "function": "approve(address,uint256)",
      "arguments": [
        "0x6Ae43d3271ff6888e7Fc43Fd7321a503ff738951",
        "122"
      ],
      "transaction": {
        "type": "0x02",
        "from": "0x09c0126087ac47816516f049fe73ee3e8122a42c",
        "to": "0xf8fb3713d459d7c1018bd0a49d19b4c44290ebe5",
        "gas": "0xf938",
        "value": "0x0",
        "data": "0x095ea7b30000000000000000000000006ae43d3271ff6888e7fc43fd7321a503ff738951000000000000000000000000000000000000000000000000000000000000007a",
        "nonce": "0xfd",
        "accessList": []
      },
      "additionalContracts": [],
      "isFixedGasLimit": false
    },
    {
      "hash": "0x45b0f32c95e1468f40d7de0e038b7023b768d91d8b0c81a354d8a90b8f201059",
      "transactionType": "CALL",
      "contractName": "InitializableImmutableAdminUpgradeabilityProxy",
      "contractAddress": "0x6Ae43d3271ff6888e7Fc43Fd7321a503ff738951",
      "function": "repay(address,uint256,uint256,address)",
      "arguments": [
        "0xf8Fb3713D459D7C1018BD0A49D19b4C44290EBE5",
        "122",
        "2",
        "0x09c0126087ac47816516F049fE73Ee3e8122A42c"
      ],
      "transaction": {
        "type": "0x02",
        "from": "0x09c0126087ac47816516f049fe73ee3e8122a42c",
        "to": "0x6ae43d3271ff6888e7fc43fd7321a503ff738951",
        "gas": "0x3b8ab",
        "value": "0x0",
        "data": "0x573ade81000000000000000000000000f8fb3713d459d7c1018bd0a49d19b4c44290ebe5000000000000000000000000000000000000000000000000000000000000007a000000000000000000000000000000000000000000000000000000000000000200000000000000000000000009c0126087ac47816516f049fe73ee3e8122a42c",
        "nonce": "0xfe",
        "accessList": []
      },
      "additionalContracts": [],
      "isFixedGasLimit": false
    }
  ],
  "receipts": [],
  "libraries": [],
  "pending": [
    "0x0e6c5aff16be2a00290ed352f3ec0596182412f50cdf514defbfe3f5448aec86",
    "0x45b0f32c95e1468f40d7de0e038b7023b768d91d8b0c81a354d8a90b8f201059"
  ],
  "returns": {},
  "timestamp": 1701698331,
  "chain": 11155111,
  "multi": false,
  "commit": "7fb8683"
}