{
  "transactions": [
    {
      "hash": "0x2339d1d9a77f66a5d5b08b97270f58d38981ea66f14cb043ef14d38b13b3c5ef",
      "transactionType": "CALL",
      "contractName": "TestnetERC20",
      "contractAddress": "0xf8Fb3713D459D7C1018BD0A49D19b4C44290EBE5",
      "function": "approve(address,uint256)",
      "arguments": [
        "0x6Ae43d3271ff6888e7Fc43Fd7321a503ff738951",
        "10000000000"
      ],
      "transaction": {
        "type": "0x02",
        "from": "0x09c0126087ac47816516f049fe73ee3e8122a42c",
        "to": "0xf8fb3713d459d7c1018bd0a49d19b4c44290ebe5",
        "gas": "0x9d27",
        "value": "0x0",
        "data": "0x095ea7b30000000000000000000000006ae43d3271ff6888e7fc43fd7321a503ff73895100000000000000000000000000000000000000000000000000000002540be400",
        "nonce": "0xfa",
        "accessList": []
      },
      "additionalContracts": [],
      "isFixedGasLimit": false
    },
    {
      "hash": "0x38dfe9f1932cf1f566280572060b8bda79d683d56184e1123674ea29c628a1e0",
      "transactionType": "CALL",
      "contractName": "InitializableImmutableAdminUpgradeabilityProxy",
      "contractAddress": "0x6Ae43d3271ff6888e7Fc43Fd7321a503ff738951",
      "function": "supply(address,uint256,address,uint16)",
      "arguments": [
        "0xf8Fb3713D459D7C1018BD0A49D19b4C44290EBE5",
        "10000000000",
        "0x09c0126087ac47816516F049fE73Ee3e8122A42c",
        "0"
      ],
      "transaction": {
        "type": "0x02",
        "from": "0x09c0126087ac47816516f049fe73ee3e8122a42c",
        "to": "0x6ae43d3271ff6888e7fc43fd7321a503ff738951",
        "gas": "0x3aca1",
        "value": "0x0",
        "data": "0x617ba037000000000000000000000000f8fb3713d459d7c1018bd0a49d19b4c44290ebe500000000000000000000000000000000000000000000000000000002540be40000000000000000000000000009c0126087ac47816516f049fe73ee3e8122a42c0000000000000000000000000000000000000000000000000000000000000000",
        "nonce": "0xfb",
        "accessList": []
      },
      "additionalContracts": [],
      "isFixedGasLimit": false
    }
  ],
  "receipts": [],
  "libraries": [],
  "pending": [
    "0x2339d1d9a77f66a5d5b08b97270f58d38981ea66f14cb043ef14d38b13b3c5ef",
    "0x38dfe9f1932cf1f566280572060b8bda79d683d56184e1123674ea29c628a1e0"
  ],
  "returns": {},
  "timestamp": 1701697830,
  "chain": 11155111,
  "multi": false,
  "commit": "7fb8683"
}