{
  "transactions": [
    {
      "hash": "0x28b243bf14575e946cfd3012a51f499608cab276d098759d56cdc84bc72ff61d",
      "transactionType": "CALL",
      "contractName": "WETH",
      "contractAddress": "0x7b79995e5f793A07Bc00c21412e50Ecae098E7f9",
      "function": "approve(address,uint256)",
      "arguments": [
        "0x6Ae43d3271ff6888e7Fc43Fd7321a503ff738951",
        "10000000000000000"
      ],
      "transaction": {
        "type": "0x02",
        "from": "0x09c0126087ac47816516f049fe73ee3e8122a42c",
        "to": "0x7b79995e5f793a07bc00c21412e50ecae098e7f9",
        "gas": "0xf84c",
        "value": "0x0",
        "data": "0x095ea7b30000000000000000000000006ae43d3271ff6888e7fc43fd7321a503ff738951000000000000000000000000000000000000000000000000002386f26fc10000",
        "nonce": "0xd6",
        "accessList": []
      },
      "additionalContracts": [],
      "isFixedGasLimit": false
    }
  ],
  "receipts": [
    {
      "transactionHash": "0x28b243bf14575e946cfd3012a51f499608cab276d098759d56cdc84bc72ff61d",
      "transactionIndex": "0x6",
      "blockHash": "0x6b39ec6dfb1a34da98ec96538160b672dfa1d030ab03a4160387db44cd17206b",
      "blockNumber": "0x491c7c",
      "from": "0x09c0126087ac47816516F049fE73Ee3e8122A42c",
      "to": "0x7b79995e5f793A07Bc00c21412e50Ecae098E7f9",
      "cumulativeGasUsed": "0x94e78",
      "gasUsed": "0xb3c4",
      "contractAddress": null,
      "logs": [
        {
          "address": "0x7b79995e5f793A07Bc00c21412e50Ecae098E7f9",
          "topics": [
            "0x8c5be1e5ebec7d5bd14f71427d1e84f3dd0314c0f7b2291e5b200ac8c7c3b925",
            "0x00000000000000000000000009c0126087ac47816516f049fe73ee3e8122a42c",
            "0x0000000000000000000000006ae43d3271ff6888e7fc43fd7321a503ff738951"
          ],
          "data": "0x000000000000000000000000000000000000000000000000002386f26fc10000",
          "blockHash": "0x6b39ec6dfb1a34da98ec96538160b672dfa1d030ab03a4160387db44cd17206b",
          "blockNumber": "0x491c7c",
          "transactionHash": "0x28b243bf14575e946cfd3012a51f499608cab276d098759d56cdc84bc72ff61d",
          "transactionIndex": "0x6",
          "logIndex": "0x1",
          "removed": false
        }
      ],
      "status": "0x1",
      "logsBloom": "0x00000000000000000000000000000000000000000000000000000004000000000000000000000000000000000000000000040000000000000000000000200000000000000000000000000000000000000000000000000000000000000000200000000000000000000000000000000000000000000000000000000000000000002000000000000000000000200000000000000000000000000000000000000000020000000000000000000000000000080000000000004000000000000000000000000002000000000000000000000000000000000000000000000000000000000010000000000000000000000000000000000000000020000000000000000000",
      "type": "0x2",
      "effectiveGasPrice": "0xbb032782"
    }
  ],
  "libraries": [],
  "pending": [],
  "returns": {},
  "timestamp": 1701293894,
  "chain": 11155111,
  "multi": false,
  "commit": "fc2d524"
}