{
  "transactions": [
    {
      "hash": "0x6583de7d77620074f39ce092c68b0254ce40e6ea0a499b51a0b46612b0c02d8d",
      "transactionType": "CALL",
      "contractName": "TestnetERC20",
      "contractAddress": "0xf8Fb3713D459D7C1018BD0A49D19b4C44290EBE5",
      "function": "approve(address,uint256)",
      "arguments": [
        "0x6Ae43d3271ff6888e7Fc43Fd7321a503ff738951",
        "115792089237316195423570985008687907853269984665640564039457584007913129639935"
      ],
      "transaction": {
        "type": "0x02",
        "from": "0x09c0126087ac47816516f049fe73ee3e8122a42c",
        "to": "0xf8fb3713d459d7c1018bd0a49d19b4c44290ebe5",
        "gas": "0x10a01",
        "value": "0x0",
        "data": "0x095ea7b30000000000000000000000006ae43d3271ff6888e7fc43fd7321a503ff738951ffffffffffffffffffffffffffffffffffffffffffffffffffffffffffffffff",
        "nonce": "0x10b",
        "accessList": []
      },
      "additionalContracts": [],
      "isFixedGasLimit": false
    },
    {
      "hash": "0xdd1c145f76fb62a90943e1f55f84286ac84bd12f97fda3bda889fd8e9fc11ad6",
      "transactionType": "CALL",
      "contractName": "InitializableImmutableAdminUpgradeabilityProxy",
      "contractAddress": "0x6Ae43d3271ff6888e7Fc43Fd7321a503ff738951",
      "function": "repay(address,uint256,uint256,address)",
      "arguments": [
        "0xf8Fb3713D459D7C1018BD0A49D19b4C44290EBE5",
        "115792089237316195423570985008687907853269984665640564039457584007913129639935",
        "2",
        "0x09c0126087ac47816516F049fE73Ee3e8122A42c"
      ],
      "transaction": {
        "type": "0x02",
        "from": "0x09c0126087ac47816516f049fe73ee3e8122a42c",
        "to": "0x6ae43d3271ff6888e7fc43fd7321a503ff738951",
        "gas": "0x3e65d",
        "value": "0x0",
        "data": "0x573ade81000000000000000000000000f8fb3713d459d7c1018bd0a49d19b4c44290ebe5ffffffffffffffffffffffffffffffffffffffffffffffffffffffffffffffff000000000000000000000000000000000000000000000000000000000000000200000000000000000000000009c0126087ac47816516f049fe73ee3e8122a42c",
        "nonce": "0x10c",
        "accessList": []
      },
      "additionalContracts": [],
      "isFixedGasLimit": false
    }
  ],
  "receipts": [
    {
      "transactionHash": "0x6583de7d77620074f39ce092c68b0254ce40e6ea0a499b51a0b46612b0c02d8d",
      "transactionIndex": "0x19",
      "blockHash": "0x612263559b86fb0032cb4959eefcc14e47825397b01a8f4cc1131bf9ca75034d",
      "blockNumber": "0x499163",
      "from": "0x09c0126087ac47816516F049fE73Ee3e8122A42c",
      "to": "0xf8Fb3713D459D7C1018BD0A49D19b4C44290EBE5",
      "cumulativeGasUsed": "0x220857",
      "gasUsed": "0xb5e3",
      "contractAddress": null,
      "logs": [
        {
          "address": "0xf8Fb3713D459D7C1018BD0A49D19b4C44290EBE5",
          "topics": [
            "0x8c5be1e5ebec7d5bd14f71427d1e84f3dd0314c0f7b2291e5b200ac8c7c3b925",
            "0x00000000000000000000000009c0126087ac47816516f049fe73ee3e8122a42c",
            "0x0000000000000000000000006ae43d3271ff6888e7fc43fd7321a503ff738951"
          ],
          "data": "0xffffffffffffffffffffffffffffffffffffffffffffffffffffffffffffffff",
          "blockHash": "0x612263559b86fb0032cb4959eefcc14e47825397b01a8f4cc1131bf9ca75034d",
          "blockNumber": "0x499163",
          "transactionHash": "0x6583de7d77620074f39ce092c68b0254ce40e6ea0a499b51a0b46612b0c02d8d",
          "transactionIndex": "0x19",
          "logIndex": "0x2",
          "removed": false
        }
      ],
      "status": "0x1",
      "logsBloom": "0x00000000000000000000000000000000000000000000000000000000000000800000000000000000000000000000000000040000000000020000000000200000000000000000000000000000000000000000000000000000000000000000200000000000000000000000000000000400000000000000000000000000000000002000000000000000000000200000000000000000000000000000000000000000020000000000000000000000000000000000000000004000000000000000000000000000000000000000000000000000000000000000000000000000000000000010000000000000000000000000000000000000000020000000000000000000",
      "type": "0x2",
      "effectiveGasPrice": "0xb9a85e68"
    },
    {
      "transactionHash": "0xdd1c145f76fb62a90943e1f55f84286ac84bd12f97fda3bda889fd8e9fc11ad6",
      "transactionIndex": "0x1a",
      "blockHash": "0x612263559b86fb0032cb4959eefcc14e47825397b01a8f4cc1131bf9ca75034d",
      "blockNumber": "0x499163",
      "from": "0x09c0126087ac47816516F049fE73Ee3e8122A42c",
      "to": "0x6Ae43d3271ff6888e7Fc43Fd7321a503ff738951",
      "cumulativeGasUsed": "0x24db24",
      "gasUsed": "0x2d2cd",
      "contractAddress": null,
      "logs": [
        {
          "address": "0x34a4d932E722b9dFb492B9D8131127690CE2430B",
          "topics": [
            "0xddf252ad1be2c89b69c2b068fc378daa952ba7f163c4a11628f55a4df523b3ef",
            "0x00000000000000000000000009c0126087ac47816516f049fe73ee3e8122a42c",
            "0x0000000000000000000000000000000000000000000000000000000000000000"
          ],
          "data": "0x000000000000000000000000000000000000000000000000000000160eb86065",
          "blockHash": "0x612263559b86fb0032cb4959eefcc14e47825397b01a8f4cc1131bf9ca75034d",
          "blockNumber": "0x499163",
          "transactionHash": "0xdd1c145f76fb62a90943e1f55f84286ac84bd12f97fda3bda889fd8e9fc11ad6",
          "transactionIndex": "0x1a",
          "logIndex": "0x3",
          "removed": false
        },
        {
          "address": "0x34a4d932E722b9dFb492B9D8131127690CE2430B",
          "topics": [
            "0x4cf25bc1d991c17529c25213d3cc0cda295eeaad5f13f361969b12ea48015f90",
            "0x00000000000000000000000009c0126087ac47816516f049fe73ee3e8122a42c",
            "0x0000000000000000000000000000000000000000000000000000000000000000"
          ],
          "data": "0x000000000000000000000000000000000000000000000000000000160eb8606500000000000000000000000000000000000000000000000000000000000a0eaa0000000000000000000000000000000000000000048d2d11dac44835a3eccdd9",
          "blockHash": "0x612263559b86fb0032cb4959eefcc14e47825397b01a8f4cc1131bf9ca75034d",
          "blockNumber": "0x499163",
          "transactionHash": "0xdd1c145f76fb62a90943e1f55f84286ac84bd12f97fda3bda889fd8e9fc11ad6",
          "transactionIndex": "0x1a",
          "logIndex": "0x4",
          "removed": false
        },
        {
          "address": "0x6Ae43d3271ff6888e7Fc43Fd7321a503ff738951",
          "topics": [
            "0x804c9b842b2748a22bb64b345453a3de7ca54a6ca45ce00d415894979e22897a",
            "0x000000000000000000000000f8fb3713d459d7c1018bd0a49d19b4c44290ebe5"
          ],
          "data": "0x0000000000000000000000000000000000000000050ee1e793db759a3a77fe76000000000000000000000000000000000000000007acf4e0b93e11287637e9450000000000000000000000000000000000000000076282a2f28a059ddc37e945000000000000000000000000000000000000000004276fb02124fd375f8d45fd0000000000000000000000000000000000000000048d2d11dac44835a3eccdd9",
          "blockHash": "0x612263559b86fb0032cb4959eefcc14e47825397b01a8f4cc1131bf9ca75034d",
          "blockNumber": "0x499163",
          "transactionHash": "0xdd1c145f76fb62a90943e1f55f84286ac84bd12f97fda3bda889fd8e9fc11ad6",
          "transactionIndex": "0x1a",
          "logIndex": "0x5",
          "removed": false
        },
        {
          "address": "0xf8Fb3713D459D7C1018BD0A49D19b4C44290EBE5",
          "topics": [
            "0xddf252ad1be2c89b69c2b068fc378daa952ba7f163c4a11628f55a4df523b3ef",
            "0x00000000000000000000000009c0126087ac47816516f049fe73ee3e8122a42c",
            "0x0000000000000000000000003ffaf50d4f4e96eb78f2407c090b72e86ecaed24"
          ],
          "data": "0x000000000000000000000000000000000000000000000000000000160ec26f0f",
          "blockHash": "0x612263559b86fb0032cb4959eefcc14e47825397b01a8f4cc1131bf9ca75034d",
          "blockNumber": "0x499163",
          "transactionHash": "0xdd1c145f76fb62a90943e1f55f84286ac84bd12f97fda3bda889fd8e9fc11ad6",
          "transactionIndex": "0x1a",
          "logIndex": "0x6",
          "removed": false
        },
        {
          "address": "0xf8Fb3713D459D7C1018BD0A49D19b4C44290EBE5",
          "topics": [
            "0x8c5be1e5ebec7d5bd14f71427d1e84f3dd0314c0f7b2291e5b200ac8c7c3b925",
            "0x00000000000000000000000009c0126087ac47816516f049fe73ee3e8122a42c",
            "0x0000000000000000000000006ae43d3271ff6888e7fc43fd7321a503ff738951"
          ],
          "data": "0xffffffffffffffffffffffffffffffffffffffffffffffffffffffe9f13d90f0",
          "blockHash": "0x612263559b86fb0032cb4959eefcc14e47825397b01a8f4cc1131bf9ca75034d",
          "blockNumber": "0x499163",
          "transactionHash": "0xdd1c145f76fb62a90943e1f55f84286ac84bd12f97fda3bda889fd8e9fc11ad6",
          "transactionIndex": "0x1a",
          "logIndex": "0x7",
          "removed": false
        },
        {
          "address": "0x6Ae43d3271ff6888e7Fc43Fd7321a503ff738951",
          "topics": [
            "0xa534c8dbe71f871f9f3530e97a74601fea17b426cae02e1c5aee42c96c784051",
            "0x000000000000000000000000f8fb3713d459d7c1018bd0a49d19b4c44290ebe5",
            "0x00000000000000000000000009c0126087ac47816516f049fe73ee3e8122a42c",
            "0x00000000000000000000000009c0126087ac47816516f049fe73ee3e8122a42c"
          ],
          "data": "0x000000000000000000000000000000000000000000000000000000160ec26f0f0000000000000000000000000000000000000000000000000000000000000000",
          "blockHash": "0x612263559b86fb0032cb4959eefcc14e47825397b01a8f4cc1131bf9ca75034d",
          "blockNumber": "0x499163",
          "transactionHash": "0xdd1c145f76fb62a90943e1f55f84286ac84bd12f97fda3bda889fd8e9fc11ad6",
          "transactionIndex": "0x1a",
          "logIndex": "0x8",
          "removed": false
        }
      ],
      "status": "0x1",
      "logsBloom": "0x10020000000000000000000000000000000000000000000000000000000000800000000040000000000000000000000000050000402000020000000000200000000000000001000000000008000000000000000000000000000000000000200000000000020020000000000000000c00000000000000000008000010400000002000000001000000000000200000000000200000000000000000000000000000020000000000020000000000000000000000000000004000000000000000010000000002000000000000002000000000004000000000000000000000000020040010100000000000000000000000000000000000000820000000000000040000",
      "type": "0x2",
      "effectiveGasPrice": "0xb9a85e68"
    }
  ],
  "libraries": [],
  "pending": [],
  "returns": {},
  "timestamp": 1701703046,
  "chain": 11155111,
  "multi": false,
  "commit": "c28aaea"
}