{
  "transactions": [
    {
      "hash": "0xee4ebd4734af16f15537b1aaea5831e723b2d8366490dc8b271b825733c19c44",
      "transactionType": "CALL",
      "contractName": "WETH",
      "contractAddress": "0x7b79995e5f793A07Bc00c21412e50Ecae098E7f9",
      "function": "approve(address,uint256)",
      "arguments": [
        "0x6Ae43d3271ff6888e7Fc43Fd7321a503ff738951",
        "10000000000000000"
      ],
      "transaction": {
        "type": "0x02",
        "from": "0x09c0126087ac47816516f049fe73ee3e8122a42c",
        "to": "0x7b79995e5f793a07bc00c21412e50ecae098e7f9",
        "gas": "0x8ced",
        "value": "0x0",
        "data": "0x095ea7b30000000000000000000000006ae43d3271ff6888e7fc43fd7321a503ff738951000000000000000000000000000000000000000000000000002386f26fc10000",
        "nonce": "0xd7",
        "accessList": []
      },
      "additionalContracts": [],
      "isFixedGasLimit": false
    }
  ],
  "receipts": [],
  "libraries": [],
  "pending": [
    "0xee4ebd4734af16f15537b1aaea5831e723b2d8366490dc8b271b825733c19c44"
  ],
  "returns": {},
  "timestamp": 1701294251,
  "chain": 11155111,
  "multi": false,
  "commit": "fc2d524"
}