{
  "transactions": [
    {
      "hash": "0x4af694463fe1517ce68de1d1c7c68a61d0583718a8c05e370dfa1659d0fdab1c",
      "transactionType": "CALL",
      "contractName": "TestnetERC20",
      "contractAddress": "0xf8Fb3713D459D7C1018BD0A49D19b4C44290EBE5",
      "function": "approve(address,uint256)",
      "arguments": [
        "0x6Ae43d3271ff6888e7Fc43Fd7321a503ff738951",
        "2200000000000"
      ],
      "transaction": {
        "type": "0x02",
        "from": "0x09c0126087ac47816516f049fe73ee3e8122a42c",
        "to": "0xf8fb3713d459d7c1018bd0a49d19b4c44290ebe5",
        "gas": "0x10816",
        "value": "0x0",
        "data": "0x095ea7b30000000000000000000000006ae43d3271ff6888e7fc43fd7321a503ff738951000000000000000000000000000000000000000000000000000002003a37f000",
        "nonce": "0xf8",
        "accessList": []
      },
      "additionalContracts": [],
      "isFixedGasLimit": false
    },
    {
      "hash": "0x0a59bf3cbb835e8070e326e5fbaad100c976af39f632e7aec8640fa9f9e136b6",
      "transactionType": "CALL",
      "contractName": "InitializableImmutableAdminUpgradeabilityProxy",
      "contractAddress": "0x6Ae43d3271ff6888e7Fc43Fd7321a503ff738951",
      "function": "repay(address,uint256,uint256,address)",
      "arguments": [
        "0xf8Fb3713D459D7C1018BD0A49D19b4C44290EBE5",
        "2200000000000",
        "2",
        "0x09c0126087ac47816516F049fE73Ee3e8122A42c"
      ],
      "transaction": {
        "type": "0x02",
        "from": "0x09c0126087ac47816516f049fe73ee3e8122a42c",
        "to": "0x6ae43d3271ff6888e7fc43fd7321a503ff738951",
        "gas": "0x3e477",
        "value": "0x0",
        "data": "0x573ade81000000000000000000000000f8fb3713d459d7c1018bd0a49d19b4c44290ebe5000000000000000000000000000000000000000000000000000002003a37f000000000000000000000000000000000000000000000000000000000000000000200000000000000000000000009c0126087ac47816516f049fe73ee3e8122a42c",
        "nonce": "0xf9",
        "accessList": []
      },
      "additionalContracts": [],
      "isFixedGasLimit": false
    }
  ],
  "receipts": [
    {
      "transactionHash": "0x4af694463fe1517ce68de1d1c7c68a61d0583718a8c05e370dfa1659d0fdab1c",
      "transactionIndex": "0x14",
      "blockHash": "0x71d75d72929aba6191109bd2c4ca1f6f6008f254ae9ef04e2275d5d403e0bddc",
      "blockNumber": "0x498f98",
      "from": "0x09c0126087ac47816516F049fE73Ee3e8122A42c",
      "to": "0xf8Fb3713D459D7C1018BD0A49D19b4C44290EBE5",
      "cumulativeGasUsed": "0x164260",
      "gasUsed": "0xb493",
      "contractAddress": null,
      "logs": [
        {
          "address": "0xf8Fb3713D459D7C1018BD0A49D19b4C44290EBE5",
          "topics": [
            "0x8c5be1e5ebec7d5bd14f71427d1e84f3dd0314c0f7b2291e5b200ac8c7c3b925",
            "0x00000000000000000000000009c0126087ac47816516f049fe73ee3e8122a42c",
            "0x0000000000000000000000006ae43d3271ff6888e7fc43fd7321a503ff738951"
          ],
          "data": "0x000000000000000000000000000000000000000000000000000002003a37f000",
          "blockHash": "0x71d75d72929aba6191109bd2c4ca1f6f6008f254ae9ef04e2275d5d403e0bddc",
          "blockNumber": "0x498f98",
          "transactionHash": "0x4af694463fe1517ce68de1d1c7c68a61d0583718a8c05e370dfa1659d0fdab1c",
          "transactionIndex": "0x14",
          "logIndex": "0x2",
          "removed": false
        }
      ],
      "status": "0x1",
      "logsBloom": "0x00000000000000000000000000000000000000000000000000000000000000800000000000000000000000000000000000040000000000020000000000200000000000000000000000000000000000000000000000000000000000000000200000000000000000000000000000000400000000000000000000000000000000002000000000000000000000200000000000000000000000000000000000000000020000000000000000000000000000000000000000004000000000000000000000000000000000000000000000000000000000000000000000000000000000000010000000000000000000000000000000000000000020000000000000000000",
      "type": "0x2",
      "effectiveGasPrice": "0xb9236d81"
    },
    {
      "transactionHash": "0x0a59bf3cbb835e8070e326e5fbaad100c976af39f632e7aec8640fa9f9e136b6",
      "transactionIndex": "0x15",
      "blockHash": "0x71d75d72929aba6191109bd2c4ca1f6f6008f254ae9ef04e2275d5d403e0bddc",
      "blockNumber": "0x498f98",
      "from": "0x09c0126087ac47816516F049fE73Ee3e8122A42c",
      "to": "0x6Ae43d3271ff6888e7Fc43Fd7321a503ff738951",
      "cumulativeGasUsed": "0x1913cd",
      "gasUsed": "0x2d16d",
      "contractAddress": null,
      "logs": [
        {
          "address": "0x34a4d932E722b9dFb492B9D8131127690CE2430B",
          "topics": [
            "0xddf252ad1be2c89b69c2b068fc378daa952ba7f163c4a11628f55a4df523b3ef",
            "0x00000000000000000000000009c0126087ac47816516f049fe73ee3e8122a42c",
            "0x0000000000000000000000000000000000000000000000000000000000000000"
          ],
          "data": "0x000000000000000000000000000000000000000000000000000001e06f101afc",
          "blockHash": "0x71d75d72929aba6191109bd2c4ca1f6f6008f254ae9ef04e2275d5d403e0bddc",
          "blockNumber": "0x498f98",
          "transactionHash": "0x0a59bf3cbb835e8070e326e5fbaad100c976af39f632e7aec8640fa9f9e136b6",
          "transactionIndex": "0x15",
          "logIndex": "0x3",
          "removed": false
        },
        {
          "address": "0x34a4d932E722b9dFb492B9D8131127690CE2430B",
          "topics": [
            "0x4cf25bc1d991c17529c25213d3cc0cda295eeaad5f13f361969b12ea48015f90",
            "0x00000000000000000000000009c0126087ac47816516f049fe73ee3e8122a42c",
            "0x0000000000000000000000000000000000000000000000000000000000000000"
          ],
          "data": "0x000000000000000000000000000000000000000000000000000001e06f101afc0000000000000000000000000000000000000000000000000000000016cbe5020000000000000000000000000000000000000000048cab9875b95c69d1d89687",
          "blockHash": "0x71d75d72929aba6191109bd2c4ca1f6f6008f254ae9ef04e2275d5d403e0bddc",
          "blockNumber": "0x498f98",
          "transactionHash": "0x0a59bf3cbb835e8070e326e5fbaad100c976af39f632e7aec8640fa9f9e136b6",
          "transactionIndex": "0x15",
          "logIndex": "0x4",
          "removed": false
        },
        {
          "address": "0x6Ae43d3271ff6888e7Fc43Fd7321a503ff738951",
          "topics": [
            "0x804c9b842b2748a22bb64b345453a3de7ca54a6ca45ce00d415894979e22897a",
            "0x000000000000000000000000f8fb3713d459d7c1018bd0a49d19b4c44290ebe5"
          ],
          "data": "0x0000000000000000000000000000000000000000050ff7d30572245e9c9f8a2a000000000000000000000000000000000000000007ae0542765f9ee18da748e1000000000000000000000000000000000000000007639304afab9356f3a748e1000000000000000000000000000000000000000004271eba67c5954f9d6e4e8f0000000000000000000000000000000000000000048cab9875b95c69d1d89687",
          "blockHash": "0x71d75d72929aba6191109bd2c4ca1f6f6008f254ae9ef04e2275d5d403e0bddc",
          "blockNumber": "0x498f98",
          "transactionHash": "0x0a59bf3cbb835e8070e326e5fbaad100c976af39f632e7aec8640fa9f9e136b6",
          "transactionIndex": "0x15",
          "logIndex": "0x5",
          "removed": false
        },
        {
          "address": "0xf8Fb3713D459D7C1018BD0A49D19b4C44290EBE5",
          "topics": [
            "0xddf252ad1be2c89b69c2b068fc378daa952ba7f163c4a11628f55a4df523b3ef",
            "0x00000000000000000000000009c0126087ac47816516f049fe73ee3e8122a42c",
            "0x0000000000000000000000003ffaf50d4f4e96eb78f2407c090b72e86ecaed24"
          ],
          "data": "0x000000000000000000000000000000000000000000000000000001e085dbfffe",
          "blockHash": "0x71d75d72929aba6191109bd2c4ca1f6f6008f254ae9ef04e2275d5d403e0bddc",
          "blockNumber": "0x498f98",
          "transactionHash": "0x0a59bf3cbb835e8070e326e5fbaad100c976af39f632e7aec8640fa9f9e136b6",
          "transactionIndex": "0x15",
          "logIndex": "0x6",
          "removed": false
        },
        {
          "address": "0xf8Fb3713D459D7C1018BD0A49D19b4C44290EBE5",
          "topics": [
            "0x8c5be1e5ebec7d5bd14f71427d1e84f3dd0314c0f7b2291e5b200ac8c7c3b925",
            "0x00000000000000000000000009c0126087ac47816516f049fe73ee3e8122a42c",
            "0x0000000000000000000000006ae43d3271ff6888e7fc43fd7321a503ff738951"
          ],
          "data": "0x0000000000000000000000000000000000000000000000000000001fb45bf002",
          "blockHash": "0x71d75d72929aba6191109bd2c4ca1f6f6008f254ae9ef04e2275d5d403e0bddc",
          "blockNumber": "0x498f98",
          "transactionHash": "0x0a59bf3cbb835e8070e326e5fbaad100c976af39f632e7aec8640fa9f9e136b6",
          "transactionIndex": "0x15",
          "logIndex": "0x7",
          "removed": false
        },
        {
          "address": "0x6Ae43d3271ff6888e7Fc43Fd7321a503ff738951",
          "topics": [
            "0xa534c8dbe71f871f9f3530e97a74601fea17b426cae02e1c5aee42c96c784051",
            "0x000000000000000000000000f8fb3713d459d7c1018bd0a49d19b4c44290ebe5",
            "0x00000000000000000000000009c0126087ac47816516f049fe73ee3e8122a42c",
            "0x00000000000000000000000009c0126087ac47816516f049fe73ee3e8122a42c"
          ],
          "data": "0x000000000000000000000000000000000000000000000000000001e085dbfffe0000000000000000000000000000000000000000000000000000000000000000",
          "blockHash": "0x71d75d72929aba6191109bd2c4ca1f6f6008f254ae9ef04e2275d5d403e0bddc",
          "blockNumber": "0x498f98",
          "transactionHash": "0x0a59bf3cbb835e8070e326e5fbaad100c976af39f632e7aec8640fa9f9e136b6",
          "transactionIndex": "0x15",
          "logIndex": "0x8",
          "removed": false
        }
      ],
      "status": "0x1",
      "logsBloom": "0x10020000000000000000000000000000000000000000000000000000000000800000000040000000000000000000000000050000402000020000000000200000000000000001000000000008000000000000000000000000000000000000200000000000020020000000000000000c00000000000000000008000010400000002000000001000000000000200000000000200000000000000000000000000000020000000000020000000000000000000000000000004000000000000000010000000002000000000000002000000000004000000000000000000000000020040010100000000000000000000000000000000000000820000000000000040000",
      "type": "0x2",
      "effectiveGasPrice": "0xb9236d81"
    }
  ],
  "libraries": [],
  "pending": [],
  "returns": {},
  "timestamp": 1701697060,
  "chain": 11155111,
  "multi": false,
  "commit": "7fb8683"
}