{
  "transactions": [
    {
      "hash": "0x158512a08bb8dc6a3dcd85aa84e114d54536852686c96d4ff2d1e5160ed94f1a",
      "transactionType": "CALL",
      "contractName": "LinkToken",
      "contractAddress": "0x779877A7B0D9E8603169DdbD7836e478b4624789",
      "function": "approve(address,uint256)",
      "arguments": [
        "0x6Ae43d3271ff6888e7Fc43Fd7321a503ff738951",
        "10000000000000000"
      ],
      "transaction": {
        "type": "0x02",
        "from": "0x09c0126087ac47816516f049fe73ee3e8122a42c",
        "to": "0x779877a7b0d9e8603169ddbd7836e478b4624789",
        "gas": "0x107fc",
        "value": "0x0",
        "data": "0x095ea7b30000000000000000000000006ae43d3271ff6888e7fc43fd7321a503ff738951000000000000000000000000000000000000000000000000002386f26fc10000",
        "nonce": "0xe9",
        "accessList": []
      },
      "additionalContracts": [],
      "isFixedGasLimit": false
    }
  ],
  "receipts": [
    {
      "transactionHash": "0x158512a08bb8dc6a3dcd85aa84e114d54536852686c96d4ff2d1e5160ed94f1a",
      "transactionIndex": "0x29",
      "blockHash": "0x13192e98d53ba393c75e06993eb03fdd6f539c0ad8ba560179afa84cbbc2d182",
      "blockNumber": "0x494623",
      "from": "0x09c0126087ac47816516F049fE73Ee3e8122A42c",
      "to": "0x779877A7B0D9E8603169DdbD7836e478b4624789",
      "cumulativeGasUsed": "0x93a9c9",
      "gasUsed": "0xb481",
      "contractAddress": null,
      "logs": [
        {
          "address": "0x779877A7B0D9E8603169DdbD7836e478b4624789",
          "topics": [
            "0x8c5be1e5ebec7d5bd14f71427d1e84f3dd0314c0f7b2291e5b200ac8c7c3b925",
            "0x00000000000000000000000009c0126087ac47816516f049fe73ee3e8122a42c",
            "0x0000000000000000000000006ae43d3271ff6888e7fc43fd7321a503ff738951"
          ],
          "data": "0x000000000000000000000000000000000000000000000000002386f26fc10000",
          "blockHash": "0x13192e98d53ba393c75e06993eb03fdd6f539c0ad8ba560179afa84cbbc2d182",
          "blockNumber": "0x494623",
          "transactionHash": "0x158512a08bb8dc6a3dcd85aa84e114d54536852686c96d4ff2d1e5160ed94f1a",
          "transactionIndex": "0x29",
          "logIndex": "0x1",
          "removed": false
        }
      ],
      "status": "0x1",
      "logsBloom": "0x00000004000000000000000000000000000000000000000000000000000000000000000000000000000000000000000000040000000000000000000000200000000000000000000000000000000000000000000000000000000000000000200000000000000000000000000000000000000000000000000000000000000000002000000000000000000000200000800000000000000000000000000000000000020000000000000000000000000000000000000000004000000000000000000000000000000000000000000000000000000000000000000100000000000000000010000000000000000000000000000000000000000020000000000000000000",
      "type": "0x2",
      "effectiveGasPrice": "0xbb47961e"
    }
  ],
  "libraries": [],
  "pending": [],
  "returns": {},
  "timestamp": 1701439804,
  "chain": 11155111,
  "multi": false,
  "commit": "fd61391"
}